{
  "contractName": "CryptoKaijus",
  "abi": [
    {
      "constant": true,
      "inputs": [
        {
          "name": "_interfaceId",
          "type": "bytes4"
        }
      ],
      "name": "supportsInterface",
      "outputs": [
        {
          "name": "",
          "type": "bool"
        }
      ],
      "payable": false,
      "stateMutability": "view",
      "type": "function",
      "signature": "0x01ffc9a7"
    },
    {
      "constant": true,
      "inputs": [],
      "name": "name",
      "outputs": [
        {
          "name": "",
          "type": "string"
        }
      ],
      "payable": false,
      "stateMutability": "view",
      "type": "function",
      "signature": "0x06fdde03"
    },
    {
      "constant": true,
      "inputs": [
        {
          "name": "_tokenId",
          "type": "uint256"
        }
      ],
      "name": "getApproved",
      "outputs": [
        {
          "name": "",
          "type": "address"
        }
      ],
      "payable": false,
      "stateMutability": "view",
      "type": "function",
      "signature": "0x081812fc"
    },
    {
      "constant": false,
      "inputs": [
        {
          "name": "_to",
          "type": "address"
        },
        {
          "name": "_tokenId",
          "type": "uint256"
        }
      ],
      "name": "approve",
      "outputs": [],
      "payable": false,
      "stateMutability": "nonpayable",
      "type": "function",
      "signature": "0x095ea7b3"
    },
    {
      "constant": true,
      "inputs": [
        {
          "name": "_operator",
          "type": "address"
        },
        {
          "name": "_role",
          "type": "string"
        }
      ],
      "name": "checkRole",
      "outputs": [],
      "payable": false,
      "stateMutability": "view",
      "type": "function",
      "signature": "0x0988ca8c"
    },
    {
      "constant": true,
      "inputs": [],
      "name": "totalSupply",
      "outputs": [
        {
          "name": "",
          "type": "uint256"
        }
      ],
      "payable": false,
      "stateMutability": "view",
      "type": "function",
      "signature": "0x18160ddd"
    },
    {
      "constant": true,
      "inputs": [],
      "name": "ROLE_WHITELISTED",
      "outputs": [
        {
          "name": "",
          "type": "string"
        }
      ],
      "payable": false,
      "stateMutability": "view",
      "type": "function",
      "signature": "0x18b919e9"
    },
    {
      "constant": true,
      "inputs": [],
      "name": "InterfaceId_ERC165",
      "outputs": [
        {
          "name": "",
          "type": "bytes4"
        }
      ],
      "payable": false,
      "stateMutability": "view",
      "type": "function",
      "signature": "0x19fa8f50"
    },
    {
      "constant": true,
      "inputs": [
        {
          "name": "_operator",
          "type": "address"
        },
        {
          "name": "_role",
          "type": "string"
        }
      ],
      "name": "hasRole",
      "outputs": [
        {
          "name": "",
          "type": "bool"
        }
      ],
      "payable": false,
      "stateMutability": "view",
      "type": "function",
      "signature": "0x217fe6c6"
    },
    {
      "constant": false,
      "inputs": [
        {
          "name": "_from",
          "type": "address"
        },
        {
          "name": "_to",
          "type": "address"
        },
        {
          "name": "_tokenId",
          "type": "uint256"
        }
      ],
      "name": "transferFrom",
      "outputs": [],
      "payable": false,
      "stateMutability": "nonpayable",
      "type": "function",
      "signature": "0x23b872dd"
    },
    {
      "constant": false,
      "inputs": [
        {
          "name": "_operators",
          "type": "address[]"
        }
      ],
      "name": "removeAddressesFromWhitelist",
      "outputs": [],
      "payable": false,
      "stateMutability": "nonpayable",
      "type": "function",
      "signature": "0x24953eaa"
    },
    {
      "constant": false,
      "inputs": [
        {
          "name": "_operator",
          "type": "address"
        }
      ],
      "name": "removeAddressFromWhitelist",
      "outputs": [],
      "payable": false,
      "stateMutability": "nonpayable",
      "type": "function",
      "signature": "0x286dd3f5"
    },
    {
      "constant": true,
      "inputs": [
        {
          "name": "_owner",
          "type": "address"
        },
        {
          "name": "_index",
          "type": "uint256"
        }
      ],
      "name": "tokenOfOwnerByIndex",
      "outputs": [
        {
          "name": "",
          "type": "uint256"
        }
      ],
      "payable": false,
      "stateMutability": "view",
      "type": "function",
      "signature": "0x2f745c59"
    },
    {
      "constant": true,
      "inputs": [],
      "name": "tokenIdPointer",
      "outputs": [
        {
          "name": "",
          "type": "uint256"
        }
      ],
      "payable": false,
      "stateMutability": "view",
      "type": "function",
      "signature": "0x3b3a1a7a"
    },
    {
      "constant": false,
      "inputs": [
        {
          "name": "_from",
          "type": "address"
        },
        {
          "name": "_to",
          "type": "address"
        },
        {
          "name": "_tokenId",
          "type": "uint256"
        }
      ],
      "name": "safeTransferFrom",
      "outputs": [],
      "payable": false,
      "stateMutability": "nonpayable",
      "type": "function",
      "signature": "0x42842e0e"
    },
    {
      "constant": true,
      "inputs": [],
      "name": "tokenBaseURI",
      "outputs": [
        {
          "name": "",
          "type": "string"
        }
      ],
      "payable": false,
      "stateMutability": "view",
      "type": "function",
      "signature": "0x4e99b800"
    },
    {
      "constant": true,
      "inputs": [
        {
          "name": "_tokenId",
          "type": "uint256"
        }
      ],
      "name": "exists",
      "outputs": [
        {
          "name": "",
          "type": "bool"
        }
      ],
      "payable": false,
      "stateMutability": "view",
      "type": "function",
      "signature": "0x4f558e79"
    },
    {
      "constant": true,
      "inputs": [
        {
          "name": "_index",
          "type": "uint256"
        }
      ],
      "name": "tokenByIndex",
      "outputs": [
        {
          "name": "",
          "type": "uint256"
        }
      ],
      "payable": false,
      "stateMutability": "view",
      "type": "function",
      "signature": "0x4f6ccce7"
    },
    {
      "constant": true,
      "inputs": [
        {
          "name": "_tokenId",
          "type": "uint256"
        }
      ],
      "name": "ownerOf",
      "outputs": [
        {
          "name": "",
          "type": "address"
        }
      ],
      "payable": false,
      "stateMutability": "view",
      "type": "function",
      "signature": "0x6352211e"
    },
    {
      "constant": true,
      "inputs": [
        {
          "name": "_owner",
          "type": "address"
        }
      ],
      "name": "balanceOf",
      "outputs": [
        {
          "name": "",
          "type": "uint256"
        }
      ],
      "payable": false,
      "stateMutability": "view",
      "type": "function",
      "signature": "0x70a08231"
    },
    {
      "constant": false,
      "inputs": [],
      "name": "renounceOwnership",
      "outputs": [],
      "payable": false,
      "stateMutability": "nonpayable",
      "type": "function",
      "signature": "0x715018a6"
    },
    {
      "constant": false,
      "inputs": [
        {
          "name": "_operator",
          "type": "address"
        }
      ],
      "name": "addAddressToWhitelist",
      "outputs": [],
      "payable": false,
      "stateMutability": "nonpayable",
      "type": "function",
      "signature": "0x7b9417c8"
    },
    {
      "constant": true,
      "inputs": [],
      "name": "owner",
      "outputs": [
        {
          "name": "",
          "type": "address"
        }
      ],
      "payable": false,
      "stateMutability": "view",
      "type": "function",
      "signature": "0x8da5cb5b"
    },
    {
      "constant": true,
      "inputs": [],
      "name": "symbol",
      "outputs": [
        {
          "name": "",
          "type": "string"
        }
      ],
      "payable": false,
      "stateMutability": "view",
      "type": "function",
      "signature": "0x95d89b41"
    },
    {
      "constant": true,
      "inputs": [
        {
          "name": "_operator",
          "type": "address"
        }
      ],
      "name": "whitelist",
      "outputs": [
        {
          "name": "",
          "type": "bool"
        }
      ],
      "payable": false,
      "stateMutability": "view",
      "type": "function",
      "signature": "0x9b19251a"
    },
    {
      "constant": false,
      "inputs": [
        {
          "name": "_to",
          "type": "address"
        },
        {
          "name": "_approved",
          "type": "bool"
        }
      ],
      "name": "setApprovalForAll",
      "outputs": [],
      "payable": false,
      "stateMutability": "nonpayable",
      "type": "function",
      "signature": "0xa22cb465"
    },
    {
      "constant": false,
      "inputs": [
        {
          "name": "_from",
          "type": "address"
        },
        {
          "name": "_to",
          "type": "address"
        },
        {
          "name": "_tokenId",
          "type": "uint256"
        },
        {
          "name": "_data",
          "type": "bytes"
        }
      ],
      "name": "safeTransferFrom",
      "outputs": [],
      "payable": false,
      "stateMutability": "nonpayable",
      "type": "function",
      "signature": "0xb88d4fde"
    },
    {
      "constant": false,
      "inputs": [
        {
          "name": "_operators",
          "type": "address[]"
        }
      ],
      "name": "addAddressesToWhitelist",
      "outputs": [],
      "payable": false,
      "stateMutability": "nonpayable",
      "type": "function",
      "signature": "0xe2ec6ec3"
    },
    {
      "constant": true,
      "inputs": [
        {
          "name": "_owner",
          "type": "address"
        },
        {
          "name": "_operator",
          "type": "address"
        }
      ],
      "name": "isApprovedForAll",
      "outputs": [
        {
          "name": "",
          "type": "bool"
        }
      ],
      "payable": false,
      "stateMutability": "view",
      "type": "function",
      "signature": "0xe985e9c5"
    },
    {
      "constant": false,
      "inputs": [
        {
          "name": "_newOwner",
          "type": "address"
        }
      ],
      "name": "transferOwnership",
      "outputs": [],
      "payable": false,
      "stateMutability": "nonpayable",
      "type": "function",
      "signature": "0xf2fde38b"
    },
    {
      "inputs": [],
      "payable": false,
      "stateMutability": "nonpayable",
      "type": "constructor",
      "signature": "constructor"
    },
    {
      "anonymous": false,
      "inputs": [
        {
          "indexed": true,
          "name": "operator",
          "type": "address"
        },
        {
          "indexed": false,
          "name": "role",
          "type": "string"
        }
      ],
      "name": "RoleAdded",
      "type": "event",
      "signature": "0xbfec83d64eaa953f2708271a023ab9ee82057f8f3578d548c1a4ba0b5b700489"
    },
    {
      "anonymous": false,
      "inputs": [
        {
          "indexed": true,
          "name": "operator",
          "type": "address"
        },
        {
          "indexed": false,
          "name": "role",
          "type": "string"
        }
      ],
      "name": "RoleRemoved",
      "type": "event",
      "signature": "0xd211483f91fc6eff862467f8de606587a30c8fc9981056f051b897a418df803a"
    },
    {
      "anonymous": false,
      "inputs": [
        {
          "indexed": true,
          "name": "previousOwner",
          "type": "address"
        }
      ],
      "name": "OwnershipRenounced",
      "type": "event",
      "signature": "0xf8df31144d9c2f0f6b59d69b8b98abd5459d07f2742c4df920b25aae33c64820"
    },
    {
      "anonymous": false,
      "inputs": [
        {
          "indexed": true,
          "name": "previousOwner",
          "type": "address"
        },
        {
          "indexed": true,
          "name": "newOwner",
          "type": "address"
        }
      ],
      "name": "OwnershipTransferred",
      "type": "event",
      "signature": "0x8be0079c531659141344cd1fd0a4f28419497f9722a3daafe3b4186f6b6457e0"
    },
    {
      "anonymous": false,
      "inputs": [
        {
          "indexed": true,
          "name": "_from",
          "type": "address"
        },
        {
          "indexed": true,
          "name": "_to",
          "type": "address"
        },
        {
          "indexed": true,
          "name": "_tokenId",
          "type": "uint256"
        }
      ],
      "name": "Transfer",
      "type": "event",
      "signature": "0xddf252ad1be2c89b69c2b068fc378daa952ba7f163c4a11628f55a4df523b3ef"
    },
    {
      "anonymous": false,
      "inputs": [
        {
          "indexed": true,
          "name": "_owner",
          "type": "address"
        },
        {
          "indexed": true,
          "name": "_approved",
          "type": "address"
        },
        {
          "indexed": true,
          "name": "_tokenId",
          "type": "uint256"
        }
      ],
      "name": "Approval",
      "type": "event",
      "signature": "0x8c5be1e5ebec7d5bd14f71427d1e84f3dd0314c0f7b2291e5b200ac8c7c3b925"
    },
    {
      "anonymous": false,
      "inputs": [
        {
          "indexed": true,
          "name": "_owner",
          "type": "address"
        },
        {
          "indexed": true,
          "name": "_operator",
          "type": "address"
        },
        {
          "indexed": false,
          "name": "_approved",
          "type": "bool"
        }
      ],
      "name": "ApprovalForAll",
      "type": "event",
      "signature": "0x17307eab39ab6107e8899845ad3d59bd9653f200f220920489ca2b5937696c31"
    },
    {
      "constant": false,
      "inputs": [
        {
          "name": "nfcId",
          "type": "bytes32"
        },
        {
          "name": "tokenURI",
          "type": "string"
        },
        {
          "name": "birthDate",
          "type": "uint256"
        }
      ],
      "name": "mint",
      "outputs": [
        {
          "name": "",
          "type": "bool"
        }
      ],
      "payable": false,
      "stateMutability": "nonpayable",
      "type": "function",
      "signature": "0x50e862db"
    },
    {
      "constant": false,
      "inputs": [
        {
          "name": "to",
          "type": "address"
        },
        {
          "name": "nfcId",
          "type": "bytes32"
        },
        {
          "name": "tokenURI",
          "type": "string"
        },
        {
          "name": "birthDate",
          "type": "uint256"
        }
      ],
      "name": "mintTo",
      "outputs": [
        {
          "name": "",
          "type": "bool"
        }
      ],
      "payable": false,
      "stateMutability": "nonpayable",
      "type": "function",
      "signature": "0xd4264af0"
    },
    {
      "constant": false,
      "inputs": [
        {
          "name": "tokenId",
          "type": "uint256"
        }
      ],
      "name": "burn",
      "outputs": [],
      "payable": false,
      "stateMutability": "nonpayable",
      "type": "function",
      "signature": "0x42966c68"
    },
    {
      "constant": false,
      "inputs": [
        {
          "name": "tokenId",
          "type": "uint256"
        },
        {
          "name": "uri",
          "type": "string"
        }
      ],
      "name": "setTokenURI",
      "outputs": [],
      "payable": false,
      "stateMutability": "nonpayable",
      "type": "function",
      "signature": "0x162094c4"
    },
    {
      "constant": false,
      "inputs": [
        {
          "name": "_newBaseURI",
          "type": "string"
        }
      ],
      "name": "setTokenBaseURI",
      "outputs": [],
      "payable": false,
      "stateMutability": "nonpayable",
      "type": "function",
      "signature": "0x8ef79e91"
    },
    {
      "constant": true,
      "inputs": [
        {
          "name": "_tokenId",
          "type": "uint256"
        }
      ],
      "name": "tokenURI",
      "outputs": [
        {
          "name": "",
          "type": "string"
        }
      ],
      "payable": false,
      "stateMutability": "view",
      "type": "function",
      "signature": "0xc87b56dd"
    },
    {
      "constant": true,
      "inputs": [
        {
          "name": "_tokenId",
          "type": "uint256"
        }
      ],
      "name": "birthDateOfToken",
      "outputs": [
        {
          "name": "",
          "type": "uint256"
        }
      ],
      "payable": false,
      "stateMutability": "view",
      "type": "function",
      "signature": "0xc838d2c4"
    },
    {
      "constant": true,
      "inputs": [
        {
          "name": "_nfcId",
          "type": "bytes32"
        }
      ],
      "name": "tokenOfNfcId",
      "outputs": [
        {
          "name": "",
          "type": "uint256"
        }
      ],
      "payable": false,
      "stateMutability": "view",
      "type": "function",
      "signature": "0x1b5fdd0a"
    },
    {
      "constant": true,
      "inputs": [
        {
          "name": "_tokenId",
          "type": "uint256"
        }
      ],
      "name": "nfcIdTokenId",
      "outputs": [
        {
          "name": "",
          "type": "bytes32"
        }
      ],
      "payable": false,
      "stateMutability": "view",
      "type": "function",
      "signature": "0xadfbcfa3"
    },
    {
      "constant": true,
      "inputs": [
        {
          "name": "_nfcId",
          "type": "bytes32"
        }
      ],
      "name": "nfcDetails",
      "outputs": [
        {
          "name": "tokenId",
          "type": "uint256"
        },
        {
          "name": "nfcId",
          "type": "bytes32"
        },
        {
          "name": "tokenUri",
          "type": "string"
        },
        {
          "name": "dob",
          "type": "uint256"
        }
      ],
      "payable": false,
      "stateMutability": "view",
      "type": "function",
      "signature": "0x5cacd319"
    },
    {
      "constant": true,
      "inputs": [
        {
          "name": "_tokenId",
          "type": "uint256"
        }
      ],
      "name": "tokenDetails",
      "outputs": [
        {
          "name": "tokenId",
          "type": "uint256"
        },
        {
          "name": "nfcId",
          "type": "bytes32"
        },
        {
          "name": "tokenUri",
          "type": "string"
        },
        {
          "name": "dob",
          "type": "uint256"
        }
      ],
      "payable": false,
      "stateMutability": "view",
      "type": "function",
      "signature": "0xfc314e31"
    }
  ],
  "bytecode": "0x60c0604052601c60808190527f68747470733a2f2f697066732e696e667572612e696f2f697066732f0000000060a09081526200004091600e919062000441565b5060016012553480156200005357600080fd5b50604080518082018252600c81527f43727970746f4b61696a757300000000000000000000000000000000000000006020808301919091528251808401909352600683527f4b41494a555300000000000000000000000000000000000000000000000000009083015290620000f17f01ffc9a7000000000000000000000000000000000000000000000000000000006401000000006200021e810204565b620001257f80ac58cd000000000000000000000000000000000000000000000000000000006401000000006200021e810204565b620001597f4f558e79000000000000000000000000000000000000000000000000000000006401000000006200021e810204565b81516200016e90600590602085019062000441565b5080516200018490600690602084019062000441565b50620001b97f780e9d63000000000000000000000000000000000000000000000000000000006401000000006200021e810204565b620001ed7f5b5e139f000000000000000000000000000000000000000000000000000000006401000000006200021e810204565b5050600c8054600160a060020a0319163390811790915562000218906401000000006200028b810204565b620004e6565b7fffffffff0000000000000000000000000000000000000000000000000000000080821614156200024e57600080fd5b7fffffffff00000000000000000000000000000000000000000000000000000000166000908152602081905260409020805460ff19166001179055565b600c54600160a060020a03163314620002a357600080fd5b620002f3816040805190810160405280600981526020017f77686974656c6973740000000000000000000000000000000000000000000000815250620002f6640100000000026401000000009004565b50565b6200037282600d836040518082805190602001908083835b602083106200032f5780518252601f1990920191602091820191016200030e565b51815160209384036101000a60001901801990921691161790529201948552506040519384900301909220929150506401000000006200041c81026200203c1704565b81600160a060020a03167fbfec83d64eaa953f2708271a023ab9ee82057f8f3578d548c1a4ba0b5b700489826040518080602001828103825283818151815260200191508051906020019080838360005b83811015620003dd578181015183820152602001620003c3565b50505050905090810190601f1680156200040b5780820380516001836020036101000a031916815260200191505b509250505060405180910390a25050565b600160a060020a0316600090815260209190915260409020805460ff19166001179055565b828054600181600116156101000203166002900490600052602060002090601f016020900481019282601f106200048457805160ff1916838001178555620004b4565b82800160010185558215620004b4579182015b82811115620004b457825182559160200191906001019062000497565b50620004c2929150620004c6565b5090565b620004e391905b80821115620004c25760008155600101620004cd565b90565b6124db80620004f66000396000f3006080604052600436106101f85763ffffffff7c010000000000000000000000000000000000000000000000000000000060003504166301ffc9a781146101fd57806306fdde0314610233578063081812fc146102bd578063095ea7b3146102f15780630988ca8c14610317578063162094c41461037e57806318160ddd146103dc57806318b919e91461040357806319fa8f50146104185780631b5fdd0a1461044a578063217fe6c61461046257806323b872dd146104c957806324953eaa146104f3578063286dd3f5146105485780632f745c59146105695780633b3a1a7a1461058d57806342842e0e146105a257806342966c68146105cc5780634e99b800146105e45780634f558e79146105f95780634f6ccce71461061157806350e862db146106295780635cacd319146106895780636352211e1461073157806370a0823114610749578063715018a61461076a5780637b9417c81461077f5780638da5cb5b146107a05780638ef79e91146107b557806395d89b41146107d55780639b19251a146107ea578063a22cb4651461080b578063adfbcfa314610831578063b88d4fde14610849578063c838d2c4146108b8578063c87b56dd146108d0578063d4264af0146108e8578063e2ec6ec314610953578063e985e9c5146109a8578063f2fde38b146109cf578063fc314e31146109f0575b600080fd5b34801561020957600080fd5b5061021f600160e060020a031960043516610a08565b604080519115158252519081900360200190f35b34801561023f57600080fd5b50610248610a27565b6040805160208082528351818301528351919283929083019185019080838360005b8381101561028257818101518382015260200161026a565b50505050905090810190601f1680156102af5780820380516001836020036101000a031916815260200191505b509250505060405180910390f35b3480156102c957600080fd5b506102d5600435610abe565b60408051600160a060020a039092168252519081900360200190f35b3480156102fd57600080fd5b50610315600160a060020a0360043516602435610ad9565b005b34801561032357600080fd5b5060408051602060046024803582810135601f8101859004850286018501909652858552610315958335600160a060020a0316953695604494919390910191908190840183828082843750949750610b8f9650505050505050565b34801561038a57600080fd5b5060408051602060046024803582810135601f8101859004850286018501909652858552610315958335953695604494919390910191908190840183828082843750949750610bfd9650505050505050565b3480156103e857600080fd5b506103f1610c3a565b60408051918252519081900360200190f35b34801561040f57600080fd5b50610248610c40565b34801561042457600080fd5b5061042d610c65565b60408051600160e060020a03199092168252519081900360200190f35b34801561045657600080fd5b506103f1600435610c89565b34801561046e57600080fd5b5060408051602060046024803582810135601f810185900485028601850190965285855261021f958335600160a060020a0316953695604494919390910191908190840183828082843750949750610c9b9650505050505050565b3480156104d557600080fd5b50610315600160a060020a0360043581169060243516604435610d0e565b3480156104ff57600080fd5b506040805160206004803580820135838102808601850190965280855261031595369593946024949385019291829185019084908082843750949750610db19650505050505050565b34801561055457600080fd5b50610315600160a060020a0360043516610e00565b34801561057557600080fd5b506103f1600160a060020a0360043516602435610e47565b34801561059957600080fd5b506103f1610e94565b3480156105ae57600080fd5b50610315600160a060020a0360043581169060243516604435610e9a565b3480156105d857600080fd5b50610315600435610eb6565b3480156105f057600080fd5b50610248610ee5565b34801561060557600080fd5b5061021f600435610f73565b34801561061d57600080fd5b506103f1600435610f90565b34801561063557600080fd5b5060408051602060046024803582810135601f810185900485028601850190965285855261021f9583359536956044949193909101919081908401838280828437509497505093359450610fc59350505050565b34801561069557600080fd5b506106a160043561100c565b604080518581526020808201869052606082018490526080928201838152855193830193909352845191929160a084019186019080838360005b838110156106f35781810151838201526020016106db565b50505050905090810190601f1680156107205780820380516001836020036101000a031916815260200191505b509550505050505060405180910390f35b34801561073d57600080fd5b506102d560043561103b565b34801561075557600080fd5b506103f1600160a060020a0360043516611065565b34801561077657600080fd5b50610315611098565b34801561078b57600080fd5b50610315600160a060020a0360043516611106565b3480156107ac57600080fd5b506102d561114a565b3480156107c157600080fd5b506103156004803560248101910135611159565b3480156107e157600080fd5b50610248611207565b3480156107f657600080fd5b5061021f600160a060020a0360043516611268565b34801561081757600080fd5b50610315600160a060020a03600435166024351515611297565b34801561083d57600080fd5b506103f160043561131b565b34801561085557600080fd5b50604080516020601f60643560048181013592830184900484028501840190955281845261031594600160a060020a03813581169560248035909216956044359536956084940191819084018382808284375094975061132d9650505050505050565b3480156108c457600080fd5b506103f160043561134f565b3480156108dc57600080fd5b50610248600435611361565b3480156108f457600080fd5b50604080516020600460443581810135601f810184900484028501840190955284845261021f948235600160a060020a031694602480359536959460649492019190819084018382808284375094975050933594506114919350505050565b34801561095f57600080fd5b5060408051602060048035808201358381028086018501909652808552610315953695939460249493850192918291850190849080828437509497506114db9650505050505050565b3480156109b457600080fd5b5061021f600160a060020a036004358116906024351661152a565b3480156109db57600080fd5b50610315600160a060020a0360043516611558565b3480156109fc57600080fd5b506106a1600435611578565b600160e060020a03191660009081526020819052604090205460ff1690565b60058054604080516020601f6002600019610100600188161502019095169490940493840181900481028201810190925282815260609390929091830182828015610ab35780601f10610a8857610100808354040283529160200191610ab3565b820191906000526020600020905b815481529060010190602001808311610a9657829003601f168201915b505050505090505b90565b600090815260026020526040902054600160a060020a031690565b6000610ae48261103b565b9050600160a060020a038381169082161415610aff57600080fd5b33600160a060020a0382161480610b1b5750610b1b813361152a565b1515610b2657600080fd5b600082815260026020526040808220805473ffffffffffffffffffffffffffffffffffffffff1916600160a060020a0387811691821790925591518593918516917f8c5be1e5ebec7d5bd14f71427d1e84f3dd0314c0f7b2291e5b200ac8c7c3b92591a4505050565b610bf982600d836040518082805190602001908083835b60208310610bc55780518252601f199092019160209182019101610ba6565b51815160209384036101000a60001901801990921691161790529201948552506040519384900301909220929150506115b7565b5050565b33610c2b81604080519081016040528060098152602001600080516020612490833981519152815250610b8f565b610c3583836115cc565b505050565b60095490565b6040805180820190915260098152600080516020612490833981519152602082015281565b7f01ffc9a70000000000000000000000000000000000000000000000000000000081565b6000908152600f602052604090205490565b6000610d0783600d846040518082805190602001908083835b60208310610cd35780518252601f199092019160209182019101610cb4565b51815160209384036101000a60001901801990921691161790529201948552506040519384900301909220929150506115ff565b9392505050565b610d18338261161e565b1515610d2357600080fd5b600160a060020a0383161515610d3857600080fd5b600160a060020a0382161515610d4d57600080fd5b610d57838261167d565b610d6183826116ec565b610d6b82826117f3565b8082600160a060020a031684600160a060020a03167fddf252ad1be2c89b69c2b068fc378daa952ba7f163c4a11628f55a4df523b3ef60405160405180910390a4505050565b600c54600090600160a060020a03163314610dcb57600080fd5b5060005b8151811015610bf957610df88282815181101515610de957fe5b90602001906020020151610e00565b600101610dcf565b600c54600160a060020a03163314610e1757600080fd5b610e448160408051908101604052806009815260200160008051602061249083398151915281525061183c565b50565b6000610e5283611065565b8210610e5d57600080fd5b600160a060020a0383166000908152600760205260409020805483908110610e8157fe5b9060005260206000200154905092915050565b60125481565b610c35838383602060405190810160405280600081525061132d565b610ec8610ec28261103b565b3361152a565b1515610ed357600080fd5b610e44610edf8261103b565b8261194d565b600e805460408051602060026001851615610100026000190190941693909304601f81018490048402820184019092528181529291830182828015610f6b5780601f10610f4057610100808354040283529160200191610f6b565b820191906000526020600020905b815481529060010190602001808311610f4e57829003601f168201915b505050505081565b600090815260016020526040902054600160a060020a0316151590565b6000610f9a610c3a565b8210610fa557600080fd5b6009805483908110610fb357fe5b90600052602060002001549050919050565b600033610ff581604080519081016040528060098152602001600080516020612490833981519152815250610b8f565b61100133868686611a47565b506001949350505050565b6000818152600f60205260408120548190606090829061102b81611578565b9450945094509450509193509193565b600081815260016020526040812054600160a060020a031680151561105f57600080fd5b92915050565b6000600160a060020a038216151561107c57600080fd5b50600160a060020a031660009081526003602052604090205490565b600c54600160a060020a031633146110af57600080fd5b600c54604051600160a060020a03909116907ff8df31144d9c2f0f6b59d69b8b98abd5459d07f2742c4df920b25aae33c6482090600090a2600c805473ffffffffffffffffffffffffffffffffffffffff19169055565b600c54600160a060020a0316331461111d57600080fd5b610e4481604080519081016040528060098152602001600080516020612490833981519152815250611b49565b600c54600160a060020a031681565b3361118781604080519081016040528060098152602001600080516020612490833981519152815250610b8f565b8115156111f557604080517f08c379a000000000000000000000000000000000000000000000000000000000815260206004820152601060248201527f426173652055524920696e76616c696400000000000000000000000000000000604482015290519081900360640190fd5b611201600e8484612325565b50505050565b60068054604080516020601f6002600019610100600188161502019095169490940493840181900481028201810190925282815260609390929091830182828015610ab35780601f10610a8857610100808354040283529160200191610ab3565b600061105f82604080519081016040528060098152602001600080516020612490833981519152815250610c9b565b600160a060020a0382163314156112ad57600080fd5b336000818152600460209081526040808320600160a060020a03871680855290835292819020805460ff1916861515908117909155815190815290519293927f17307eab39ab6107e8899845ad3d59bd9653f200f220920489ca2b5937696c31929181900390910190a35050565b60009081526010602052604090205490565b611338848484610d0e565b61134484848484611c1b565b151561120157600080fd5b60009081526011602052604090205490565b600e805460408051602060026001851615610100026000190190941693909304601f810184900484028201840190925281815260609361105f93919290918301828280156113f05780601f106113c5576101008083540402835291602001916113f0565b820191906000526020600020905b8154815290600101906020018083116113d357829003601f168201915b5050506000868152600b60209081526040918290208054835160026001831615610100026000190190921691909104601f8101849004840282018401909452838152945092508301828280156114875780601f1061145c57610100808354040283529160200191611487565b820191906000526020600020905b81548152906001019060200180831161146a57829003601f168201915b5050505050611d83565b6000336114c181604080519081016040528060098152602001600080516020612490833981519152815250610b8f565b6114cd86868686611a47565b600191505b50949350505050565b600c54600090600160a060020a031633146114f557600080fd5b5060005b8151811015610bf957611522828281518110151561151357fe5b90602001906020020151611106565b6001016114f9565b600160a060020a03918216600090815260046020908152604080832093909416825291909152205460ff1690565b600c54600160a060020a0316331461156f57600080fd5b610e4481611db8565b60008181526010602052604081205481906060908290859061159982611361565b60009788526011602052604090972054919790969550909350915050565b6115c182826115ff565b1515610bf957600080fd5b6115d582610f73565b15156115e057600080fd5b6000828152600b602090815260409091208251610c35928401906123a3565b600160a060020a03166000908152602091909152604090205460ff1690565b60008061162a8361103b565b905080600160a060020a031684600160a060020a03161480611665575083600160a060020a031661165a84610abe565b600160a060020a0316145b806116755750611675818561152a565b949350505050565b81600160a060020a03166116908261103b565b600160a060020a0316146116a357600080fd5b600081815260026020526040902054600160a060020a031615610bf9576000908152600260205260409020805473ffffffffffffffffffffffffffffffffffffffff1916905550565b60008060006116fb8585611e36565b600084815260086020908152604080832054600160a060020a038916845260079092529091205490935061173690600163ffffffff611ecc16565b600160a060020a03861660009081526007602052604090208054919350908390811061175e57fe5b90600052602060002001549050806007600087600160a060020a0316600160a060020a031681526020019081526020016000208481548110151561179e57fe5b6000918252602080832090910192909255600160a060020a03871681526007909152604090208054906117d5906000198301612411565b50600093845260086020526040808520859055908452909220555050565b60006117ff8383611ede565b50600160a060020a039091166000908152600760209081526040808320805460018101825590845282842081018590559383526008909152902055565b6118a682600d836040518082805190602001908083835b602083106118725780518252601f199092019160209182019101611853565b51815160209384036101000a6000190180199092169116179052920194855250604051938490030190922092915050611f6e565b81600160a060020a03167fd211483f91fc6eff862467f8de606587a30c8fc9981056f051b897a418df803a826040518080602001828103825283818151815260200191508051906020019080838360005b8381101561190f5781810151838201526020016118f7565b50505050905090810190601f16801561193c5780820380516001836020036101000a031916815260200191505b509250505060405180910390a25050565b600080600061195c8585611f90565b6000848152600b6020526040902054600260001961010060018416150201909116041561199a576000848152600b6020526040812061199a91612435565b6000848152600a60205260409020546009549093506119c090600163ffffffff611ecc16565b91506009828154811015156119d157fe5b90600052602060002001549050806009848154811015156119ee57fe5b60009182526020822001919091556009805484908110611a0a57fe5b6000918252602090912001556009805490611a29906000198301612411565b506000938452600a6020526040808520859055908452909220555050565b6000838152600f602052604081205415611ae857604080517f08c379a000000000000000000000000000000000000000000000000000000000815260206004820152602b60248201527f556e61626c6520746f206d696e74204b61696a75732077697468206475706c6960448201527f63617465204e4643204944000000000000000000000000000000000000000000606482015290519081900360840190fd5b50601254600081815260116020908152604080832085905560108252808320879055868352600f9091529020819055611b218582611fe0565b611b2b81846115cc565b601254611b3f90600163ffffffff61202f16565b6012555050505050565b611bb382600d836040518082805190602001908083835b60208310611b7f5780518252601f199092019160209182019101611b60565b51815160209384036101000a600019018019909216911617905292019485525060405193849003019092209291505061203c565b81600160a060020a03167fbfec83d64eaa953f2708271a023ab9ee82057f8f3578d548c1a4ba0b5b700489826040518080602001828103825283818151815260200191508051906020019080838360008381101561190f5781810151838201526020016118f7565b600080611c3085600160a060020a0316612061565b1515611c3f57600191506114d2565b6040517f150b7a020000000000000000000000000000000000000000000000000000000081523360048201818152600160a060020a03898116602485015260448401889052608060648501908152875160848601528751918a169463150b7a0294938c938b938b93909160a490910190602085019080838360005b83811015611cd2578181015183820152602001611cba565b50505050905090810190601f168015611cff5780820380516001836020036101000a031916815260200191505b5095505050505050602060405180830381600087803b158015611d2157600080fd5b505af1158015611d35573d6000803e3d6000fd5b505050506040513d6020811015611d4b57600080fd5b5051600160e060020a0319167f150b7a0200000000000000000000000000000000000000000000000000000000149695505050505050565b604080516020818101835260008083528351808301855281815284519283019094528152606092610d07928692869290612069565b600160a060020a0381161515611dcd57600080fd5b600c54604051600160a060020a038084169216907f8be0079c531659141344cd1fd0a4f28419497f9722a3daafe3b4186f6b6457e090600090a3600c805473ffffffffffffffffffffffffffffffffffffffff1916600160a060020a0392909216919091179055565b81600160a060020a0316611e498261103b565b600160a060020a031614611e5c57600080fd5b600160a060020a038216600090815260036020526040902054611e8690600163ffffffff611ecc16565b600160a060020a03909216600090815260036020908152604080832094909455918152600190915220805473ffffffffffffffffffffffffffffffffffffffff19169055565b600082821115611ed857fe5b50900390565b600081815260016020526040902054600160a060020a031615611f0057600080fd5b6000818152600160208181526040808420805473ffffffffffffffffffffffffffffffffffffffff1916600160a060020a0388169081179091558452600390915290912054611f4e9161202f565b600160a060020a0390921660009081526003602052604090209190915550565b600160a060020a0316600090815260209190915260409020805460ff19169055565b611f9a828261167d565b611fa482826116ec565b6040518190600090600160a060020a038516907fddf252ad1be2c89b69c2b068fc378daa952ba7f163c4a11628f55a4df523b3ef908390a45050565b611fea82826122ca565b600980546000838152600a60205260408120829055600182018355919091527f6e1540171b6c0c960b71a7020d9f60077f6af931a8bbf590da0223dacf75c7af015550565b8181018281101561105f57fe5b600160a060020a0316600090815260209190915260409020805460ff19166001179055565b6000903b1190565b6060806060806060806060806000808e98508d97508c96508b95508a94508451865188518a518c51010101016040519080825280601f01601f1916602001820160405280156120c2578160200160208202803883390190505b50935083925060009150600090505b885181101561212f5788818151811015156120e857fe5b90602001015160f860020a900460f860020a02838380600101945081518110151561210f57fe5b906020010190600160f860020a031916908160001a9053506001016120d1565b5060005b875181101561219157878181518110151561214a57fe5b90602001015160f860020a900460f860020a02838380600101945081518110151561217157fe5b906020010190600160f860020a031916908160001a905350600101612133565b5060005b86518110156121f35786818151811015156121ac57fe5b90602001015160f860020a900460f860020a0283838060010194508151811015156121d357fe5b906020010190600160f860020a031916908160001a905350600101612195565b5060005b855181101561225557858181518110151561220e57fe5b90602001015160f860020a900460f860020a02838380600101945081518110151561223557fe5b906020010190600160f860020a031916908160001a9053506001016121f7565b5060005b84518110156122b757848181518110151561227057fe5b90602001015160f860020a900460f860020a02838380600101945081518110151561229757fe5b906020010190600160f860020a031916908160001a905350600101612259565b50909d9c50505050505050505050505050565b600160a060020a03821615156122df57600080fd5b6122e982826117f3565b6040518190600160a060020a038416906000907fddf252ad1be2c89b69c2b068fc378daa952ba7f163c4a11628f55a4df523b3ef908290a45050565b828054600181600116156101000203166002900490600052602060002090601f016020900481019282601f106123665782800160ff19823516178555612393565b82800160010185558215612393579182015b82811115612393578235825591602001919060010190612378565b5061239f929150612475565b5090565b828054600181600116156101000203166002900490600052602060002090601f016020900481019282601f106123e457805160ff1916838001178555612393565b82800160010185558215612393579182015b828111156123935782518255916020019190600101906123f6565b815481835581811115610c3557600083815260209020610c35918101908301612475565b50805460018160011615610100020316600290046000825580601f1061245b5750610e44565b601f016020900490600052602060002090810190610e4491905b610abb91905b8082111561239f576000815560010161247b560077686974656c6973740000000000000000000000000000000000000000000000a165627a7a72305820d2471c535cf078d09adef2a19f42ce2402d634f665d88bddf5a7d5269178713f0029",
  "source": "pragma solidity ^0.4.24;\n\nimport \"openzeppelin-solidity/contracts/math/SafeMath.sol\";\nimport \"openzeppelin-solidity/contracts/access/Whitelist.sol\";\nimport \"openzeppelin-solidity/contracts/token/ERC721/ERC721Token.sol\";\n\nimport \"./Strings.sol\";\n\n/**\n* @title CryptoKaijus\n*/\ncontract CryptoKaijus is ERC721Token, Whitelist {\n  using SafeMath for uint256;\n\n  string public tokenBaseURI = \"https://ipfs.infura.io/ipfs/\";\n\n  // The NFC tag ID\n  mapping(bytes32 => uint256) internal nfcIdToTokenId;\n  mapping(uint256 => bytes32) internal tokenIdToNfcId;\n\n  // Block when the Kaijus was born - will help with ordering by birth date which could differ from token ID\n  mapping(uint256 => uint256) internal tokenIdToBirthDate;\n\n  // A pointer to the next token to be minted, zero indexed\n  uint256 public tokenIdPointer = 1;\n\n  constructor () public ERC721Token(\"CryptoKaijus\", \"KAIJUS\") {\n    addAddressToWhitelist(msg.sender);\n  }\n\n  function mint(bytes32 nfcId, string tokenURI, uint256 birthDate)\n  public\n  onlyIfWhitelisted(msg.sender)\n  returns (bool) {\n    _mint(msg.sender, nfcId, tokenURI, birthDate);\n    return true;\n  }\n\n  function mintTo(address to, bytes32 nfcId, string tokenURI, uint256 birthDate)\n  public\n  onlyIfWhitelisted(msg.sender)\n  returns (bool) {\n    _mint(to, nfcId, tokenURI, birthDate);\n    return true;\n  }\n\n  function _mint(address to, bytes32 nfcId, string tokenURI, uint256 birthDate) internal {\n    require(nfcIdToTokenId[nfcId] == 0, \"Unable to mint Kaijus with duplicate NFC ID\");\n\n    uint256 tokenId = tokenIdPointer;\n\n    tokenIdToBirthDate[tokenId] = birthDate;\n    tokenIdToNfcId[tokenId] = nfcId;\n    nfcIdToTokenId[nfcId] = tokenId;\n\n    _mint(to, tokenId);\n    _setTokenURI(tokenId, tokenURI);\n\n    tokenIdPointer = tokenIdPointer.add(1);\n  }\n\n  function burn(uint256 tokenId)\n  public {\n    require(isApprovedForAll(ownerOf(tokenId), msg.sender));\n    // TODO handle burn of custom fields\n    _burn(ownerOf(tokenId), tokenId);\n  }\n\n  function setTokenURI(uint256 tokenId, string uri)\n  public\n  onlyIfWhitelisted(msg.sender) {\n    _setTokenURI(tokenId, uri);\n  }\n\n  function setTokenBaseURI(string _newBaseURI)\n  external\n  onlyIfWhitelisted(msg.sender) {\n    require(bytes(_newBaseURI).length != 0, \"Base URI invalid\");\n    tokenBaseURI = _newBaseURI;\n  }\n\n  function tokenURI(uint256 _tokenId) public view returns (string) {\n    return Strings.strConcat(tokenBaseURI, tokenURIs[_tokenId]);\n  }\n\n  function birthDateOfToken(uint256 _tokenId) public view returns (uint256) {\n    return tokenIdToBirthDate[_tokenId];\n  }\n\n  function tokenOfNfcId(bytes32 _nfcId) public view returns (uint256) {\n    return nfcIdToTokenId[_nfcId];\n  }\n\n  function nfcIdTokenId(uint256 _tokenId) public view returns (bytes32) {\n    return tokenIdToNfcId[_tokenId];\n  }\n\n  function nfcDetails(bytes32 _nfcId) public view returns (\n    uint256 tokenId,\n    bytes32 nfcId,\n    string tokenUri,\n    uint256 dob\n  ) {\n    uint256 _tokenId = nfcIdToTokenId[_nfcId];\n    return tokenDetails(_tokenId);\n  }\n\n  function tokenDetails(uint256 _tokenId) public view returns (\n    uint256 tokenId,\n    bytes32 nfcId,\n    string tokenUri,\n    uint256 dob\n  ) {\n    return (\n    _tokenId,\n    tokenIdToNfcId[_tokenId],\n    tokenURI(_tokenId),\n    tokenIdToBirthDate[_tokenId]\n    );\n  }\n\n}\n",
  "sourcePath": "/Users/jamesmorgan/Dropbox/workspace-blockrocket/crypto-kaijus/contracts/CryptoKaijus.sol",
  "compiler": {
    "name": "solc",
    "version": "0.4.24+commit.e67f0147.Emscripten.clang"
  },
  "schemaVersion": "3.0.0-beta.0",
  "updatedAt": "2018-09-12T15:00:13.985Z"
}