{
  "contractName": "CryptoKaijus",
  "abi": [
    {
      "constant": true,
      "inputs": [
        {
          "name": "_interfaceId",
          "type": "bytes4"
        }
      ],
      "name": "supportsInterface",
      "outputs": [
        {
          "name": "",
          "type": "bool"
        }
      ],
      "payable": false,
      "stateMutability": "view",
      "type": "function",
      "signature": "0x01ffc9a7"
    },
    {
      "constant": true,
      "inputs": [],
      "name": "name",
      "outputs": [
        {
          "name": "",
          "type": "string"
        }
      ],
      "payable": false,
      "stateMutability": "view",
      "type": "function",
      "signature": "0x06fdde03"
    },
    {
      "constant": true,
      "inputs": [
        {
          "name": "_tokenId",
          "type": "uint256"
        }
      ],
      "name": "getApproved",
      "outputs": [
        {
          "name": "",
          "type": "address"
        }
      ],
      "payable": false,
      "stateMutability": "view",
      "type": "function",
      "signature": "0x081812fc"
    },
    {
      "constant": false,
      "inputs": [
        {
          "name": "_to",
          "type": "address"
        },
        {
          "name": "_tokenId",
          "type": "uint256"
        }
      ],
      "name": "approve",
      "outputs": [],
      "payable": false,
      "stateMutability": "nonpayable",
      "type": "function",
      "signature": "0x095ea7b3"
    },
    {
      "constant": true,
      "inputs": [
        {
          "name": "_operator",
          "type": "address"
        },
        {
          "name": "_role",
          "type": "string"
        }
      ],
      "name": "checkRole",
      "outputs": [],
      "payable": false,
      "stateMutability": "view",
      "type": "function",
      "signature": "0x0988ca8c"
    },
    {
      "constant": true,
      "inputs": [],
      "name": "totalSupply",
      "outputs": [
        {
          "name": "",
          "type": "uint256"
        }
      ],
      "payable": false,
      "stateMutability": "view",
      "type": "function",
      "signature": "0x18160ddd"
    },
    {
      "constant": true,
      "inputs": [],
      "name": "ROLE_WHITELISTED",
      "outputs": [
        {
          "name": "",
          "type": "string"
        }
      ],
      "payable": false,
      "stateMutability": "view",
      "type": "function",
      "signature": "0x18b919e9"
    },
    {
      "constant": true,
      "inputs": [],
      "name": "InterfaceId_ERC165",
      "outputs": [
        {
          "name": "",
          "type": "bytes4"
        }
      ],
      "payable": false,
      "stateMutability": "view",
      "type": "function",
      "signature": "0x19fa8f50"
    },
    {
      "constant": true,
      "inputs": [
        {
          "name": "_operator",
          "type": "address"
        },
        {
          "name": "_role",
          "type": "string"
        }
      ],
      "name": "hasRole",
      "outputs": [
        {
          "name": "",
          "type": "bool"
        }
      ],
      "payable": false,
      "stateMutability": "view",
      "type": "function",
      "signature": "0x217fe6c6"
    },
    {
      "constant": false,
      "inputs": [
        {
          "name": "_from",
          "type": "address"
        },
        {
          "name": "_to",
          "type": "address"
        },
        {
          "name": "_tokenId",
          "type": "uint256"
        }
      ],
      "name": "transferFrom",
      "outputs": [],
      "payable": false,
      "stateMutability": "nonpayable",
      "type": "function",
      "signature": "0x23b872dd"
    },
    {
      "constant": false,
      "inputs": [
        {
          "name": "_operators",
          "type": "address[]"
        }
      ],
      "name": "removeAddressesFromWhitelist",
      "outputs": [],
      "payable": false,
      "stateMutability": "nonpayable",
      "type": "function",
      "signature": "0x24953eaa"
    },
    {
      "constant": false,
      "inputs": [
        {
          "name": "_operator",
          "type": "address"
        }
      ],
      "name": "removeAddressFromWhitelist",
      "outputs": [],
      "payable": false,
      "stateMutability": "nonpayable",
      "type": "function",
      "signature": "0x286dd3f5"
    },
    {
      "constant": true,
      "inputs": [
        {
          "name": "_owner",
          "type": "address"
        },
        {
          "name": "_index",
          "type": "uint256"
        }
      ],
      "name": "tokenOfOwnerByIndex",
      "outputs": [
        {
          "name": "",
          "type": "uint256"
        }
      ],
      "payable": false,
      "stateMutability": "view",
      "type": "function",
      "signature": "0x2f745c59"
    },
    {
      "constant": true,
      "inputs": [],
      "name": "tokenIdPointer",
      "outputs": [
        {
          "name": "",
          "type": "uint256"
        }
      ],
      "payable": false,
      "stateMutability": "view",
      "type": "function",
      "signature": "0x3b3a1a7a"
    },
    {
      "constant": false,
      "inputs": [
        {
          "name": "_from",
          "type": "address"
        },
        {
          "name": "_to",
          "type": "address"
        },
        {
          "name": "_tokenId",
          "type": "uint256"
        }
      ],
      "name": "safeTransferFrom",
      "outputs": [],
      "payable": false,
      "stateMutability": "nonpayable",
      "type": "function",
      "signature": "0x42842e0e"
    },
    {
      "constant": true,
      "inputs": [],
      "name": "tokenBaseURI",
      "outputs": [
        {
          "name": "",
          "type": "string"
        }
      ],
      "payable": false,
      "stateMutability": "view",
      "type": "function",
      "signature": "0x4e99b800"
    },
    {
      "constant": true,
      "inputs": [
        {
          "name": "_tokenId",
          "type": "uint256"
        }
      ],
      "name": "exists",
      "outputs": [
        {
          "name": "",
          "type": "bool"
        }
      ],
      "payable": false,
      "stateMutability": "view",
      "type": "function",
      "signature": "0x4f558e79"
    },
    {
      "constant": true,
      "inputs": [
        {
          "name": "_index",
          "type": "uint256"
        }
      ],
      "name": "tokenByIndex",
      "outputs": [
        {
          "name": "",
          "type": "uint256"
        }
      ],
      "payable": false,
      "stateMutability": "view",
      "type": "function",
      "signature": "0x4f6ccce7"
    },
    {
      "constant": true,
      "inputs": [
        {
          "name": "_tokenId",
          "type": "uint256"
        }
      ],
      "name": "ownerOf",
      "outputs": [
        {
          "name": "",
          "type": "address"
        }
      ],
      "payable": false,
      "stateMutability": "view",
      "type": "function",
      "signature": "0x6352211e"
    },
    {
      "constant": true,
      "inputs": [
        {
          "name": "_owner",
          "type": "address"
        }
      ],
      "name": "balanceOf",
      "outputs": [
        {
          "name": "",
          "type": "uint256"
        }
      ],
      "payable": false,
      "stateMutability": "view",
      "type": "function",
      "signature": "0x70a08231"
    },
    {
      "constant": false,
      "inputs": [],
      "name": "renounceOwnership",
      "outputs": [],
      "payable": false,
      "stateMutability": "nonpayable",
      "type": "function",
      "signature": "0x715018a6"
    },
    {
      "constant": false,
      "inputs": [
        {
          "name": "_operator",
          "type": "address"
        }
      ],
      "name": "addAddressToWhitelist",
      "outputs": [],
      "payable": false,
      "stateMutability": "nonpayable",
      "type": "function",
      "signature": "0x7b9417c8"
    },
    {
      "constant": true,
      "inputs": [],
      "name": "owner",
      "outputs": [
        {
          "name": "",
          "type": "address"
        }
      ],
      "payable": false,
      "stateMutability": "view",
      "type": "function",
      "signature": "0x8da5cb5b"
    },
    {
      "constant": true,
      "inputs": [],
      "name": "symbol",
      "outputs": [
        {
          "name": "",
          "type": "string"
        }
      ],
      "payable": false,
      "stateMutability": "view",
      "type": "function",
      "signature": "0x95d89b41"
    },
    {
      "constant": true,
      "inputs": [
        {
          "name": "_operator",
          "type": "address"
        }
      ],
      "name": "whitelist",
      "outputs": [
        {
          "name": "",
          "type": "bool"
        }
      ],
      "payable": false,
      "stateMutability": "view",
      "type": "function",
      "signature": "0x9b19251a"
    },
    {
      "constant": false,
      "inputs": [
        {
          "name": "_to",
          "type": "address"
        },
        {
          "name": "_approved",
          "type": "bool"
        }
      ],
      "name": "setApprovalForAll",
      "outputs": [],
      "payable": false,
      "stateMutability": "nonpayable",
      "type": "function",
      "signature": "0xa22cb465"
    },
    {
      "constant": false,
      "inputs": [
        {
          "name": "_from",
          "type": "address"
        },
        {
          "name": "_to",
          "type": "address"
        },
        {
          "name": "_tokenId",
          "type": "uint256"
        },
        {
          "name": "_data",
          "type": "bytes"
        }
      ],
      "name": "safeTransferFrom",
      "outputs": [],
      "payable": false,
      "stateMutability": "nonpayable",
      "type": "function",
      "signature": "0xb88d4fde"
    },
    {
      "constant": false,
      "inputs": [
        {
          "name": "_operators",
          "type": "address[]"
        }
      ],
      "name": "addAddressesToWhitelist",
      "outputs": [],
      "payable": false,
      "stateMutability": "nonpayable",
      "type": "function",
      "signature": "0xe2ec6ec3"
    },
    {
      "constant": true,
      "inputs": [
        {
          "name": "_owner",
          "type": "address"
        },
        {
          "name": "_operator",
          "type": "address"
        }
      ],
      "name": "isApprovedForAll",
      "outputs": [
        {
          "name": "",
          "type": "bool"
        }
      ],
      "payable": false,
      "stateMutability": "view",
      "type": "function",
      "signature": "0xe985e9c5"
    },
    {
      "constant": false,
      "inputs": [
        {
          "name": "_newOwner",
          "type": "address"
        }
      ],
      "name": "transferOwnership",
      "outputs": [],
      "payable": false,
      "stateMutability": "nonpayable",
      "type": "function",
      "signature": "0xf2fde38b"
    },
    {
      "inputs": [],
      "payable": false,
      "stateMutability": "nonpayable",
      "type": "constructor",
      "signature": "constructor"
    },
    {
      "anonymous": false,
      "inputs": [
        {
          "indexed": true,
          "name": "operator",
          "type": "address"
        },
        {
          "indexed": false,
          "name": "role",
          "type": "string"
        }
      ],
      "name": "RoleAdded",
      "type": "event",
      "signature": "0xbfec83d64eaa953f2708271a023ab9ee82057f8f3578d548c1a4ba0b5b700489"
    },
    {
      "anonymous": false,
      "inputs": [
        {
          "indexed": true,
          "name": "operator",
          "type": "address"
        },
        {
          "indexed": false,
          "name": "role",
          "type": "string"
        }
      ],
      "name": "RoleRemoved",
      "type": "event",
      "signature": "0xd211483f91fc6eff862467f8de606587a30c8fc9981056f051b897a418df803a"
    },
    {
      "anonymous": false,
      "inputs": [
        {
          "indexed": true,
          "name": "previousOwner",
          "type": "address"
        }
      ],
      "name": "OwnershipRenounced",
      "type": "event",
      "signature": "0xf8df31144d9c2f0f6b59d69b8b98abd5459d07f2742c4df920b25aae33c64820"
    },
    {
      "anonymous": false,
      "inputs": [
        {
          "indexed": true,
          "name": "previousOwner",
          "type": "address"
        },
        {
          "indexed": true,
          "name": "newOwner",
          "type": "address"
        }
      ],
      "name": "OwnershipTransferred",
      "type": "event",
      "signature": "0x8be0079c531659141344cd1fd0a4f28419497f9722a3daafe3b4186f6b6457e0"
    },
    {
      "anonymous": false,
      "inputs": [
        {
          "indexed": true,
          "name": "_from",
          "type": "address"
        },
        {
          "indexed": true,
          "name": "_to",
          "type": "address"
        },
        {
          "indexed": true,
          "name": "_tokenId",
          "type": "uint256"
        }
      ],
      "name": "Transfer",
      "type": "event",
      "signature": "0xddf252ad1be2c89b69c2b068fc378daa952ba7f163c4a11628f55a4df523b3ef"
    },
    {
      "anonymous": false,
      "inputs": [
        {
          "indexed": true,
          "name": "_owner",
          "type": "address"
        },
        {
          "indexed": true,
          "name": "_approved",
          "type": "address"
        },
        {
          "indexed": true,
          "name": "_tokenId",
          "type": "uint256"
        }
      ],
      "name": "Approval",
      "type": "event",
      "signature": "0x8c5be1e5ebec7d5bd14f71427d1e84f3dd0314c0f7b2291e5b200ac8c7c3b925"
    },
    {
      "anonymous": false,
      "inputs": [
        {
          "indexed": true,
          "name": "_owner",
          "type": "address"
        },
        {
          "indexed": true,
          "name": "_operator",
          "type": "address"
        },
        {
          "indexed": false,
          "name": "_approved",
          "type": "bool"
        }
      ],
      "name": "ApprovalForAll",
      "type": "event",
      "signature": "0x17307eab39ab6107e8899845ad3d59bd9653f200f220920489ca2b5937696c31"
    },
    {
      "constant": false,
      "inputs": [
        {
          "name": "nfcId",
          "type": "bytes32"
        },
        {
          "name": "tokenURI",
          "type": "string"
        },
        {
          "name": "birthDate",
          "type": "uint256"
        }
      ],
      "name": "mint",
      "outputs": [
        {
          "name": "",
          "type": "bool"
        }
      ],
      "payable": false,
      "stateMutability": "nonpayable",
      "type": "function",
      "signature": "0x50e862db"
    },
    {
      "constant": false,
      "inputs": [
        {
          "name": "to",
          "type": "address"
        },
        {
          "name": "nfcId",
          "type": "bytes32"
        },
        {
          "name": "tokenURI",
          "type": "string"
        },
        {
          "name": "birthDate",
          "type": "uint256"
        }
      ],
      "name": "mintTo",
      "outputs": [
        {
          "name": "",
          "type": "bool"
        }
      ],
      "payable": false,
      "stateMutability": "nonpayable",
      "type": "function",
      "signature": "0xd4264af0"
    },
    {
      "constant": false,
      "inputs": [
        {
          "name": "tokenId",
          "type": "uint256"
        }
      ],
      "name": "burn",
      "outputs": [],
      "payable": false,
      "stateMutability": "nonpayable",
      "type": "function",
      "signature": "0x42966c68"
    },
    {
      "constant": false,
      "inputs": [
        {
          "name": "tokenId",
          "type": "uint256"
        },
        {
          "name": "uri",
          "type": "string"
        }
      ],
      "name": "setTokenURI",
      "outputs": [],
      "payable": false,
      "stateMutability": "nonpayable",
      "type": "function",
      "signature": "0x162094c4"
    },
    {
      "constant": false,
      "inputs": [
        {
          "name": "_newBaseURI",
          "type": "string"
        }
      ],
      "name": "setTokenBaseURI",
      "outputs": [],
      "payable": false,
      "stateMutability": "nonpayable",
      "type": "function",
      "signature": "0x8ef79e91"
    },
    {
      "constant": true,
      "inputs": [
        {
          "name": "_tokenId",
          "type": "uint256"
        }
      ],
      "name": "tokenURI",
      "outputs": [
        {
          "name": "",
          "type": "string"
        }
      ],
      "payable": false,
      "stateMutability": "view",
      "type": "function",
      "signature": "0xc87b56dd"
    },
    {
      "constant": true,
      "inputs": [
        {
          "name": "_tokenId",
          "type": "uint256"
        }
      ],
      "name": "birthDateOf",
      "outputs": [
        {
          "name": "",
          "type": "uint256"
        }
      ],
      "payable": false,
      "stateMutability": "view",
      "type": "function",
      "signature": "0xf2e41c0b"
    },
    {
      "constant": true,
      "inputs": [
        {
          "name": "_nfcId",
          "type": "bytes32"
        }
      ],
      "name": "tokenOf",
      "outputs": [
        {
          "name": "",
          "type": "uint256"
        }
      ],
      "payable": false,
      "stateMutability": "view",
      "type": "function",
      "signature": "0xbae667bc"
    },
    {
      "constant": true,
      "inputs": [
        {
          "name": "_tokenId",
          "type": "uint256"
        }
      ],
      "name": "nfcIdOf",
      "outputs": [
        {
          "name": "",
          "type": "bytes32"
        }
      ],
      "payable": false,
      "stateMutability": "view",
      "type": "function",
      "signature": "0x3d5ef471"
    },
    {
      "constant": true,
      "inputs": [
        {
          "name": "_owner",
          "type": "address"
        }
      ],
      "name": "tokensOf",
      "outputs": [
        {
          "name": "_tokenIds",
          "type": "uint256[]"
        }
      ],
      "payable": false,
      "stateMutability": "view",
      "type": "function",
      "signature": "0x5a3f2672"
    },
    {
      "constant": true,
      "inputs": [
        {
          "name": "_nfcId",
          "type": "bytes32"
        }
      ],
      "name": "nfcDetails",
      "outputs": [
        {
          "name": "tokenId",
          "type": "uint256"
        },
        {
          "name": "nfcId",
          "type": "bytes32"
        },
        {
          "name": "tokenUri",
          "type": "string"
        },
        {
          "name": "dob",
          "type": "uint256"
        }
      ],
      "payable": false,
      "stateMutability": "view",
      "type": "function",
      "signature": "0x5cacd319"
    },
    {
      "constant": true,
      "inputs": [
        {
          "name": "_tokenId",
          "type": "uint256"
        }
      ],
      "name": "tokenDetails",
      "outputs": [
        {
          "name": "tokenId",
          "type": "uint256"
        },
        {
          "name": "nfcId",
          "type": "bytes32"
        },
        {
          "name": "tokenUri",
          "type": "string"
        },
        {
          "name": "dob",
          "type": "uint256"
        }
      ],
      "payable": false,
      "stateMutability": "view",
      "type": "function",
      "signature": "0xfc314e31"
    }
  ],
  "bytecode": "0x60c0604052601c60808190527f68747470733a2f2f697066732e696e667572612e696f2f697066732f0000000060a09081526200004091600e919062000441565b5060016012553480156200005357600080fd5b50604080518082018252600c81527f43727970746f4b61696a757300000000000000000000000000000000000000006020808301919091528251808401909352600683527f4b41494a555300000000000000000000000000000000000000000000000000009083015290620000f17f01ffc9a7000000000000000000000000000000000000000000000000000000006401000000006200021e810204565b620001257f80ac58cd000000000000000000000000000000000000000000000000000000006401000000006200021e810204565b620001597f4f558e79000000000000000000000000000000000000000000000000000000006401000000006200021e810204565b81516200016e90600590602085019062000441565b5080516200018490600690602084019062000441565b50620001b97f780e9d63000000000000000000000000000000000000000000000000000000006401000000006200021e810204565b620001ed7f5b5e139f000000000000000000000000000000000000000000000000000000006401000000006200021e810204565b5050600c8054600160a060020a0319163390811790915562000218906401000000006200028b810204565b620004e6565b7fffffffff0000000000000000000000000000000000000000000000000000000080821614156200024e57600080fd5b7fffffffff00000000000000000000000000000000000000000000000000000000166000908152602081905260409020805460ff19166001179055565b600c54600160a060020a03163314620002a357600080fd5b620002f3816040805190810160405280600981526020017f77686974656c6973740000000000000000000000000000000000000000000000815250620002f6640100000000026401000000009004565b50565b6200037282600d836040518082805190602001908083835b602083106200032f5780518252601f1990920191602091820191016200030e565b51815160209384036101000a60001901801990921691161790529201948552506040519384900301909220929150506401000000006200041c8102620021241704565b81600160a060020a03167fbfec83d64eaa953f2708271a023ab9ee82057f8f3578d548c1a4ba0b5b700489826040518080602001828103825283818151815260200191508051906020019080838360005b83811015620003dd578181015183820152602001620003c3565b50505050905090810190601f1680156200040b5780820380516001836020036101000a031916815260200191505b509250505060405180910390a25050565b600160a060020a0316600090815260209190915260409020805460ff19166001179055565b828054600181600116156101000203166002900490600052602060002090601f016020900481019282601f106200048457805160ff1916838001178555620004b4565b82800160010185558215620004b4579182015b82811115620004b457825182559160200191906001019062000497565b50620004c2929150620004c6565b5090565b620004e391905b80821115620004c25760008155600101620004cd565b90565b6125c380620004f66000396000f3006080604052600436106102035763ffffffff7c010000000000000000000000000000000000000000000000000000000060003504166301ffc9a7811461020857806306fdde031461023e578063081812fc146102c8578063095ea7b3146102fc5780630988ca8c14610322578063162094c41461038957806318160ddd146103e757806318b919e91461040e57806319fa8f5014610423578063217fe6c61461045557806323b872dd146104bc57806324953eaa146104e6578063286dd3f51461053b5780632f745c591461055c5780633b3a1a7a146105805780633d5ef4711461059557806342842e0e146105ad57806342966c68146105d75780634e99b800146105ef5780634f558e79146106045780634f6ccce71461061c57806350e862db146106345780635a3f2672146106945780635cacd319146107055780636352211e146107ad57806370a08231146107c5578063715018a6146107e65780637b9417c8146107fb5780638da5cb5b1461081c5780638ef79e911461083157806395d89b41146108515780639b19251a14610866578063a22cb46514610887578063b88d4fde146108ad578063bae667bc1461091c578063c87b56dd14610934578063d4264af01461094c578063e2ec6ec3146109b7578063e985e9c514610a0c578063f2e41c0b14610a33578063f2fde38b14610a4b578063fc314e3114610a6c575b600080fd5b34801561021457600080fd5b5061022a600160e060020a031960043516610a84565b604080519115158252519081900360200190f35b34801561024a57600080fd5b50610253610aa3565b6040805160208082528351818301528351919283929083019185019080838360005b8381101561028d578181015183820152602001610275565b50505050905090810190601f1680156102ba5780820380516001836020036101000a031916815260200191505b509250505060405180910390f35b3480156102d457600080fd5b506102e0600435610b3a565b60408051600160a060020a039092168252519081900360200190f35b34801561030857600080fd5b50610320600160a060020a0360043516602435610b55565b005b34801561032e57600080fd5b5060408051602060046024803582810135601f8101859004850286018501909652858552610320958335600160a060020a0316953695604494919390910191908190840183828082843750949750610c0b9650505050505050565b34801561039557600080fd5b5060408051602060046024803582810135601f8101859004850286018501909652858552610320958335953695604494919390910191908190840183828082843750949750610c799650505050505050565b3480156103f357600080fd5b506103fc610cb6565b60408051918252519081900360200190f35b34801561041a57600080fd5b50610253610cbc565b34801561042f57600080fd5b50610438610ce1565b60408051600160e060020a03199092168252519081900360200190f35b34801561046157600080fd5b5060408051602060046024803582810135601f810185900485028601850190965285855261022a958335600160a060020a0316953695604494919390910191908190840183828082843750949750610d059650505050505050565b3480156104c857600080fd5b50610320600160a060020a0360043581169060243516604435610d78565b3480156104f257600080fd5b506040805160206004803580820135838102808601850190965280855261032095369593946024949385019291829185019084908082843750949750610e1b9650505050505050565b34801561054757600080fd5b50610320600160a060020a0360043516610e6a565b34801561056857600080fd5b506103fc600160a060020a0360043516602435610eb1565b34801561058c57600080fd5b506103fc610efe565b3480156105a157600080fd5b506103fc600435610f04565b3480156105b957600080fd5b50610320600160a060020a0360043581169060243516604435610f16565b3480156105e357600080fd5b50610320600435610f32565b3480156105fb57600080fd5b50610253610f61565b34801561061057600080fd5b5061022a600435610fef565b34801561062857600080fd5b506103fc60043561100c565b34801561064057600080fd5b5060408051602060046024803582810135601f810185900485028601850190965285855261022a95833595369560449491939091019190819084018382808284375094975050933594506110419350505050565b3480156106a057600080fd5b506106b5600160a060020a0360043516611088565b60408051602080825283518183015283519192839290830191858101910280838360005b838110156106f15781810151838201526020016106d9565b505050509050019250505060405180910390f35b34801561071157600080fd5b5061071d6004356110f4565b604080518581526020808201869052606082018490526080928201838152855193830193909352845191929160a084019186019080838360005b8381101561076f578181015183820152602001610757565b50505050905090810190601f16801561079c5780820380516001836020036101000a031916815260200191505b509550505050505060405180910390f35b3480156107b957600080fd5b506102e0600435611123565b3480156107d157600080fd5b506103fc600160a060020a036004351661114d565b3480156107f257600080fd5b50610320611180565b34801561080757600080fd5b50610320600160a060020a03600435166111ee565b34801561082857600080fd5b506102e0611232565b34801561083d57600080fd5b506103206004803560248101910135611241565b34801561085d57600080fd5b506102536112ef565b34801561087257600080fd5b5061022a600160a060020a0360043516611350565b34801561089357600080fd5b50610320600160a060020a0360043516602435151561137f565b3480156108b957600080fd5b50604080516020601f60643560048181013592830184900484028501840190955281845261032094600160a060020a0381358116956024803590921695604435953695608494019181908401838280828437509497506114039650505050505050565b34801561092857600080fd5b506103fc600435611425565b34801561094057600080fd5b50610253600435611437565b34801561095857600080fd5b50604080516020600460443581810135601f810184900484028501840190955284845261022a948235600160a060020a031694602480359536959460649492019190819084018382808284375094975050933594506115679350505050565b3480156109c357600080fd5b5060408051602060048035808201358381028086018501909652808552610320953695939460249493850192918291850190849080828437509497506115b19650505050505050565b348015610a1857600080fd5b5061022a600160a060020a0360043581169060243516611600565b348015610a3f57600080fd5b506103fc60043561162e565b348015610a5757600080fd5b50610320600160a060020a0360043516611640565b348015610a7857600080fd5b5061071d600435611660565b600160e060020a03191660009081526020819052604090205460ff1690565b60058054604080516020601f6002600019610100600188161502019095169490940493840181900481028201810190925282815260609390929091830182828015610b2f5780601f10610b0457610100808354040283529160200191610b2f565b820191906000526020600020905b815481529060010190602001808311610b1257829003601f168201915b505050505090505b90565b600090815260026020526040902054600160a060020a031690565b6000610b6082611123565b9050600160a060020a038381169082161415610b7b57600080fd5b33600160a060020a0382161480610b975750610b978133611600565b1515610ba257600080fd5b600082815260026020526040808220805473ffffffffffffffffffffffffffffffffffffffff1916600160a060020a0387811691821790925591518593918516917f8c5be1e5ebec7d5bd14f71427d1e84f3dd0314c0f7b2291e5b200ac8c7c3b92591a4505050565b610c7582600d836040518082805190602001908083835b60208310610c415780518252601f199092019160209182019101610c22565b51815160209384036101000a600019018019909216911617905292019485525060405193849003019092209291505061169f565b5050565b33610ca781604080519081016040528060098152602001600080516020612578833981519152815250610c0b565b610cb183836116b4565b505050565b60095490565b6040805180820190915260098152600080516020612578833981519152602082015281565b7f01ffc9a70000000000000000000000000000000000000000000000000000000081565b6000610d7183600d846040518082805190602001908083835b60208310610d3d5780518252601f199092019160209182019101610d1e565b51815160209384036101000a60001901801990921691161790529201948552506040519384900301909220929150506116e7565b9392505050565b610d823382611706565b1515610d8d57600080fd5b600160a060020a0383161515610da257600080fd5b600160a060020a0382161515610db757600080fd5b610dc18382611765565b610dcb83826117d4565b610dd582826118db565b8082600160a060020a031684600160a060020a03167fddf252ad1be2c89b69c2b068fc378daa952ba7f163c4a11628f55a4df523b3ef60405160405180910390a4505050565b600c54600090600160a060020a03163314610e3557600080fd5b5060005b8151811015610c7557610e628282815181101515610e5357fe5b90602001906020020151610e6a565b600101610e39565b600c54600160a060020a03163314610e8157600080fd5b610eae81604080519081016040528060098152602001600080516020612578833981519152815250611924565b50565b6000610ebc8361114d565b8210610ec757600080fd5b600160a060020a0383166000908152600760205260409020805483908110610eeb57fe5b9060005260206000200154905092915050565b60125481565b60009081526010602052604090205490565b610cb18383836020604051908101604052806000815250611403565b610f44610f3e82611123565b33611600565b1515610f4f57600080fd5b610eae610f5b82611123565b82611a35565b600e805460408051602060026001851615610100026000190190941693909304601f81018490048402820184019092528181529291830182828015610fe75780601f10610fbc57610100808354040283529160200191610fe7565b820191906000526020600020905b815481529060010190602001808311610fca57829003601f168201915b505050505081565b600090815260016020526040902054600160a060020a0316151590565b6000611016610cb6565b821061102157600080fd5b600980548390811061102f57fe5b90600052602060002001549050919050565b60003361107181604080519081016040528060098152602001600080516020612578833981519152815250610c0b565b61107d33868686611b2f565b506001949350505050565b600160a060020a0381166000908152600760209081526040918290208054835181840281018401909452808452606093928301828280156110e857602002820191906000526020600020905b8154815260200190600101908083116110d4575b50505050509050919050565b6000818152600f60205260408120548190606090829061111381611660565b9450945094509450509193509193565b600081815260016020526040812054600160a060020a031680151561114757600080fd5b92915050565b6000600160a060020a038216151561116457600080fd5b50600160a060020a031660009081526003602052604090205490565b600c54600160a060020a0316331461119757600080fd5b600c54604051600160a060020a03909116907ff8df31144d9c2f0f6b59d69b8b98abd5459d07f2742c4df920b25aae33c6482090600090a2600c805473ffffffffffffffffffffffffffffffffffffffff19169055565b600c54600160a060020a0316331461120557600080fd5b610eae81604080519081016040528060098152602001600080516020612578833981519152815250611c31565b600c54600160a060020a031681565b3361126f81604080519081016040528060098152602001600080516020612578833981519152815250610c0b565b8115156112dd57604080517f08c379a000000000000000000000000000000000000000000000000000000000815260206004820152601060248201527f426173652055524920696e76616c696400000000000000000000000000000000604482015290519081900360640190fd5b6112e9600e848461240d565b50505050565b60068054604080516020601f6002600019610100600188161502019095169490940493840181900481028201810190925282815260609390929091830182828015610b2f5780601f10610b0457610100808354040283529160200191610b2f565b600061114782604080519081016040528060098152602001600080516020612578833981519152815250610d05565b600160a060020a03821633141561139557600080fd5b336000818152600460209081526040808320600160a060020a03871680855290835292819020805460ff1916861515908117909155815190815290519293927f17307eab39ab6107e8899845ad3d59bd9653f200f220920489ca2b5937696c31929181900390910190a35050565b61140e848484610d78565b61141a84848484611d03565b15156112e957600080fd5b6000908152600f602052604090205490565b600e805460408051602060026001851615610100026000190190941693909304601f810184900484028201840190925281815260609361114793919290918301828280156114c65780601f1061149b576101008083540402835291602001916114c6565b820191906000526020600020905b8154815290600101906020018083116114a957829003601f168201915b5050506000868152600b60209081526040918290208054835160026001831615610100026000190190921691909104601f81018490048402820184019094528381529450925083018282801561155d5780601f106115325761010080835404028352916020019161155d565b820191906000526020600020905b81548152906001019060200180831161154057829003601f168201915b5050505050611e6b565b60003361159781604080519081016040528060098152602001600080516020612578833981519152815250610c0b565b6115a386868686611b2f565b600191505b50949350505050565b600c54600090600160a060020a031633146115cb57600080fd5b5060005b8151811015610c75576115f882828151811015156115e957fe5b906020019060200201516111ee565b6001016115cf565b600160a060020a03918216600090815260046020908152604080832093909416825291909152205460ff1690565b60009081526011602052604090205490565b600c54600160a060020a0316331461165757600080fd5b610eae81611ea0565b60008181526010602052604081205481906060908290859061168182611437565b60009788526011602052604090972054919790969550909350915050565b6116a982826116e7565b1515610c7557600080fd5b6116bd82610fef565b15156116c857600080fd5b6000828152600b602090815260409091208251610cb19284019061248b565b600160a060020a03166000908152602091909152604090205460ff1690565b60008061171283611123565b905080600160a060020a031684600160a060020a0316148061174d575083600160a060020a031661174284610b3a565b600160a060020a0316145b8061175d575061175d8185611600565b949350505050565b81600160a060020a031661177882611123565b600160a060020a03161461178b57600080fd5b600081815260026020526040902054600160a060020a031615610c75576000908152600260205260409020805473ffffffffffffffffffffffffffffffffffffffff1916905550565b60008060006117e38585611f1e565b600084815260086020908152604080832054600160a060020a038916845260079092529091205490935061181e90600163ffffffff611fb416565b600160a060020a03861660009081526007602052604090208054919350908390811061184657fe5b90600052602060002001549050806007600087600160a060020a0316600160a060020a031681526020019081526020016000208481548110151561188657fe5b6000918252602080832090910192909255600160a060020a03871681526007909152604090208054906118bd9060001983016124f9565b50600093845260086020526040808520859055908452909220555050565b60006118e78383611fc6565b50600160a060020a039091166000908152600760209081526040808320805460018101825590845282842081018590559383526008909152902055565b61198e82600d836040518082805190602001908083835b6020831061195a5780518252601f19909201916020918201910161193b565b51815160209384036101000a6000190180199092169116179052920194855250604051938490030190922092915050612056565b81600160a060020a03167fd211483f91fc6eff862467f8de606587a30c8fc9981056f051b897a418df803a826040518080602001828103825283818151815260200191508051906020019080838360005b838110156119f75781810151838201526020016119df565b50505050905090810190601f168015611a245780820380516001836020036101000a031916815260200191505b509250505060405180910390a25050565b6000806000611a448585612078565b6000848152600b60205260409020546002600019610100600184161502019091160415611a82576000848152600b60205260408120611a829161251d565b6000848152600a6020526040902054600954909350611aa890600163ffffffff611fb416565b9150600982815481101515611ab957fe5b9060005260206000200154905080600984815481101515611ad657fe5b60009182526020822001919091556009805484908110611af257fe5b6000918252602090912001556009805490611b119060001983016124f9565b506000938452600a6020526040808520859055908452909220555050565b6000838152600f602052604081205415611bd057604080517f08c379a000000000000000000000000000000000000000000000000000000000815260206004820152602b60248201527f556e61626c6520746f206d696e74204b61696a75732077697468206475706c6960448201527f63617465204e4643204944000000000000000000000000000000000000000000606482015290519081900360840190fd5b50601254600081815260116020908152604080832085905560108252808320879055868352600f9091529020819055611c0985826120c8565b611c1381846116b4565b601254611c2790600163ffffffff61211716565b6012555050505050565b611c9b82600d836040518082805190602001908083835b60208310611c675780518252601f199092019160209182019101611c48565b51815160209384036101000a6000190180199092169116179052920194855250604051938490030190922092915050612124565b81600160a060020a03167fbfec83d64eaa953f2708271a023ab9ee82057f8f3578d548c1a4ba0b5b70048982604051808060200182810382528381815181526020019150805190602001908083836000838110156119f75781810151838201526020016119df565b600080611d1885600160a060020a0316612149565b1515611d2757600191506115a8565b6040517f150b7a020000000000000000000000000000000000000000000000000000000081523360048201818152600160a060020a03898116602485015260448401889052608060648501908152875160848601528751918a169463150b7a0294938c938b938b93909160a490910190602085019080838360005b83811015611dba578181015183820152602001611da2565b50505050905090810190601f168015611de75780820380516001836020036101000a031916815260200191505b5095505050505050602060405180830381600087803b158015611e0957600080fd5b505af1158015611e1d573d6000803e3d6000fd5b505050506040513d6020811015611e3357600080fd5b5051600160e060020a0319167f150b7a0200000000000000000000000000000000000000000000000000000000149695505050505050565b604080516020818101835260008083528351808301855281815284519283019094528152606092610d71928692869290612151565b600160a060020a0381161515611eb557600080fd5b600c54604051600160a060020a038084169216907f8be0079c531659141344cd1fd0a4f28419497f9722a3daafe3b4186f6b6457e090600090a3600c805473ffffffffffffffffffffffffffffffffffffffff1916600160a060020a0392909216919091179055565b81600160a060020a0316611f3182611123565b600160a060020a031614611f4457600080fd5b600160a060020a038216600090815260036020526040902054611f6e90600163ffffffff611fb416565b600160a060020a03909216600090815260036020908152604080832094909455918152600190915220805473ffffffffffffffffffffffffffffffffffffffff19169055565b600082821115611fc057fe5b50900390565b600081815260016020526040902054600160a060020a031615611fe857600080fd5b6000818152600160208181526040808420805473ffffffffffffffffffffffffffffffffffffffff1916600160a060020a038816908117909155845260039091529091205461203691612117565b600160a060020a0390921660009081526003602052604090209190915550565b600160a060020a0316600090815260209190915260409020805460ff19169055565b6120828282611765565b61208c82826117d4565b6040518190600090600160a060020a038516907fddf252ad1be2c89b69c2b068fc378daa952ba7f163c4a11628f55a4df523b3ef908390a45050565b6120d282826123b2565b600980546000838152600a60205260408120829055600182018355919091527f6e1540171b6c0c960b71a7020d9f60077f6af931a8bbf590da0223dacf75c7af015550565b8181018281101561114757fe5b600160a060020a0316600090815260209190915260409020805460ff19166001179055565b6000903b1190565b6060806060806060806060806000808e98508d97508c96508b95508a94508451865188518a518c51010101016040519080825280601f01601f1916602001820160405280156121aa578160200160208202803883390190505b50935083925060009150600090505b88518110156122175788818151811015156121d057fe5b90602001015160f860020a900460f860020a0283838060010194508151811015156121f757fe5b906020010190600160f860020a031916908160001a9053506001016121b9565b5060005b875181101561227957878181518110151561223257fe5b90602001015160f860020a900460f860020a02838380600101945081518110151561225957fe5b906020010190600160f860020a031916908160001a90535060010161221b565b5060005b86518110156122db57868181518110151561229457fe5b90602001015160f860020a900460f860020a0283838060010194508151811015156122bb57fe5b906020010190600160f860020a031916908160001a90535060010161227d565b5060005b855181101561233d5785818151811015156122f657fe5b90602001015160f860020a900460f860020a02838380600101945081518110151561231d57fe5b906020010190600160f860020a031916908160001a9053506001016122df565b5060005b845181101561239f57848181518110151561235857fe5b90602001015160f860020a900460f860020a02838380600101945081518110151561237f57fe5b906020010190600160f860020a031916908160001a905350600101612341565b50909d9c50505050505050505050505050565b600160a060020a03821615156123c757600080fd5b6123d182826118db565b6040518190600160a060020a038416906000907fddf252ad1be2c89b69c2b068fc378daa952ba7f163c4a11628f55a4df523b3ef908290a45050565b828054600181600116156101000203166002900490600052602060002090601f016020900481019282601f1061244e5782800160ff1982351617855561247b565b8280016001018555821561247b579182015b8281111561247b578235825591602001919060010190612460565b5061248792915061255d565b5090565b828054600181600116156101000203166002900490600052602060002090601f016020900481019282601f106124cc57805160ff191683800117855561247b565b8280016001018555821561247b579182015b8281111561247b5782518255916020019190600101906124de565b815481835581811115610cb157600083815260209020610cb191810190830161255d565b50805460018160011615610100020316600290046000825580601f106125435750610eae565b601f016020900490600052602060002090810190610eae91905b610b3791905b808211156124875760008155600101612563560077686974656c6973740000000000000000000000000000000000000000000000a165627a7a72305820fac92907748fa71bf90bf195416daa56357e8906d251279d3d9a2c0ba9b96f570029",
  "source": "pragma solidity ^0.4.24;\n\nimport \"openzeppelin-solidity/contracts/math/SafeMath.sol\";\nimport \"openzeppelin-solidity/contracts/access/Whitelist.sol\";\nimport \"openzeppelin-solidity/contracts/token/ERC721/ERC721Token.sol\";\n\nimport \"./Strings.sol\";\n\n/**\n* @title CryptoKaijus\n*/\ncontract CryptoKaijus is ERC721Token, Whitelist {\n  using SafeMath for uint256;\n\n  string public tokenBaseURI = \"https://ipfs.infura.io/ipfs/\";\n\n  // The NFC tag ID\n  mapping(bytes32 => uint256) internal nfcIdToTokenId;\n  mapping(uint256 => bytes32) internal tokenIdToNfcId;\n\n  // Block when the Kaijus was born - will help with ordering by birth date which could differ from token ID\n  mapping(uint256 => uint256) internal tokenIdToBirthDate;\n\n  // A pointer to the next token to be minted, zero indexed\n  uint256 public tokenIdPointer = 1;\n\n  constructor () public ERC721Token(\"CryptoKaijus\", \"KAIJUS\") {\n    addAddressToWhitelist(msg.sender);\n  }\n\n  function mint(bytes32 nfcId, string tokenURI, uint256 birthDate)\n  public\n  onlyIfWhitelisted(msg.sender)\n  returns (bool) {\n    _mint(msg.sender, nfcId, tokenURI, birthDate);\n    return true;\n  }\n\n  function mintTo(address to, bytes32 nfcId, string tokenURI, uint256 birthDate)\n  public\n  onlyIfWhitelisted(msg.sender)\n  returns (bool) {\n    _mint(to, nfcId, tokenURI, birthDate);\n    return true;\n  }\n\n  function _mint(address to, bytes32 nfcId, string tokenURI, uint256 birthDate) internal {\n    require(nfcIdToTokenId[nfcId] == 0, \"Unable to mint Kaijus with duplicate NFC ID\");\n\n    uint256 tokenId = tokenIdPointer;\n\n    tokenIdToBirthDate[tokenId] = birthDate;\n    tokenIdToNfcId[tokenId] = nfcId;\n    nfcIdToTokenId[nfcId] = tokenId;\n\n    _mint(to, tokenId);\n    _setTokenURI(tokenId, tokenURI);\n\n    tokenIdPointer = tokenIdPointer.add(1);\n  }\n\n  function burn(uint256 tokenId)\n  public {\n    require(isApprovedForAll(ownerOf(tokenId), msg.sender));\n\n    // TODO handle burn of custom fields\n    _burn(ownerOf(tokenId), tokenId);\n  }\n\n  function setTokenURI(uint256 tokenId, string uri)\n  public\n  onlyIfWhitelisted(msg.sender) {\n    _setTokenURI(tokenId, uri);\n  }\n\n  function setTokenBaseURI(string _newBaseURI)\n  external\n  onlyIfWhitelisted(msg.sender) {\n    require(bytes(_newBaseURI).length != 0, \"Base URI invalid\");\n    tokenBaseURI = _newBaseURI;\n  }\n\n  function tokenURI(uint256 _tokenId) public view returns (string) {\n    return Strings.strConcat(tokenBaseURI, tokenURIs[_tokenId]);\n  }\n\n  function birthDateOf(uint256 _tokenId) public view returns (uint256) {\n    return tokenIdToBirthDate[_tokenId];\n  }\n\n  function tokenOf(bytes32 _nfcId) public view returns (uint256) {\n    return nfcIdToTokenId[_nfcId];\n  }\n\n  function nfcIdOf(uint256 _tokenId) public view returns (bytes32) {\n    return tokenIdToNfcId[_tokenId];\n  }\n\n  function tokensOf(address _owner) public view returns (uint256[] _tokenIds) {\n    return ownedTokens[_owner];\n  }\n\n  function nfcDetails(bytes32 _nfcId) public view returns (\n    uint256 tokenId,\n    bytes32 nfcId,\n    string tokenUri,\n    uint256 dob\n  ) {\n    uint256 _tokenId = nfcIdToTokenId[_nfcId];\n    return tokenDetails(_tokenId);\n  }\n\n  function tokenDetails(uint256 _tokenId) public view returns (\n    uint256 tokenId,\n    bytes32 nfcId,\n    string tokenUri,\n    uint256 dob\n  ) {\n    return (\n    _tokenId,\n    tokenIdToNfcId[_tokenId],\n    tokenURI(_tokenId),\n    tokenIdToBirthDate[_tokenId]\n    );\n  }\n\n}\n",
  "sourcePath": "/Users/andy/workspace/crypto-kaijus/contracts/CryptoKaijus.sol",
  "compiler": {
    "name": "solc",
    "version": "0.4.24+commit.e67f0147.Emscripten.clang"
  },
  "schemaVersion": "3.0.0-beta.0",
  "updatedAt": "2018-09-20T13:49:23.990Z"
}