{
  "contractName": "CryptoKaijus",
  "abi": [
    {
      "constant": true,
      "inputs": [
        {
          "name": "_interfaceId",
          "type": "bytes4"
        }
      ],
      "name": "supportsInterface",
      "outputs": [
        {
          "name": "",
          "type": "bool"
        }
      ],
      "payable": false,
      "stateMutability": "view",
      "type": "function"
    },
    {
      "constant": true,
      "inputs": [],
      "name": "name",
      "outputs": [
        {
          "name": "",
          "type": "string"
        }
      ],
      "payable": false,
      "stateMutability": "view",
      "type": "function"
    },
    {
      "constant": true,
      "inputs": [
        {
          "name": "_tokenId",
          "type": "uint256"
        }
      ],
      "name": "getApproved",
      "outputs": [
        {
          "name": "",
          "type": "address"
        }
      ],
      "payable": false,
      "stateMutability": "view",
      "type": "function"
    },
    {
      "constant": false,
      "inputs": [
        {
          "name": "_to",
          "type": "address"
        },
        {
          "name": "_tokenId",
          "type": "uint256"
        }
      ],
      "name": "approve",
      "outputs": [],
      "payable": false,
      "stateMutability": "nonpayable",
      "type": "function"
    },
    {
      "constant": true,
      "inputs": [
        {
          "name": "_operator",
          "type": "address"
        },
        {
          "name": "_role",
          "type": "string"
        }
      ],
      "name": "checkRole",
      "outputs": [],
      "payable": false,
      "stateMutability": "view",
      "type": "function"
    },
    {
      "constant": true,
      "inputs": [],
      "name": "totalSupply",
      "outputs": [
        {
          "name": "",
          "type": "uint256"
        }
      ],
      "payable": false,
      "stateMutability": "view",
      "type": "function"
    },
    {
      "constant": true,
      "inputs": [],
      "name": "ROLE_WHITELISTED",
      "outputs": [
        {
          "name": "",
          "type": "string"
        }
      ],
      "payable": false,
      "stateMutability": "view",
      "type": "function"
    },
    {
      "constant": true,
      "inputs": [],
      "name": "InterfaceId_ERC165",
      "outputs": [
        {
          "name": "",
          "type": "bytes4"
        }
      ],
      "payable": false,
      "stateMutability": "view",
      "type": "function"
    },
    {
      "constant": true,
      "inputs": [
        {
          "name": "_operator",
          "type": "address"
        },
        {
          "name": "_role",
          "type": "string"
        }
      ],
      "name": "hasRole",
      "outputs": [
        {
          "name": "",
          "type": "bool"
        }
      ],
      "payable": false,
      "stateMutability": "view",
      "type": "function"
    },
    {
      "constant": false,
      "inputs": [
        {
          "name": "_from",
          "type": "address"
        },
        {
          "name": "_to",
          "type": "address"
        },
        {
          "name": "_tokenId",
          "type": "uint256"
        }
      ],
      "name": "transferFrom",
      "outputs": [],
      "payable": false,
      "stateMutability": "nonpayable",
      "type": "function"
    },
    {
      "constant": false,
      "inputs": [
        {
          "name": "_operators",
          "type": "address[]"
        }
      ],
      "name": "removeAddressesFromWhitelist",
      "outputs": [],
      "payable": false,
      "stateMutability": "nonpayable",
      "type": "function"
    },
    {
      "constant": false,
      "inputs": [
        {
          "name": "_operator",
          "type": "address"
        }
      ],
      "name": "removeAddressFromWhitelist",
      "outputs": [],
      "payable": false,
      "stateMutability": "nonpayable",
      "type": "function"
    },
    {
      "constant": true,
      "inputs": [
        {
          "name": "_owner",
          "type": "address"
        },
        {
          "name": "_index",
          "type": "uint256"
        }
      ],
      "name": "tokenOfOwnerByIndex",
      "outputs": [
        {
          "name": "",
          "type": "uint256"
        }
      ],
      "payable": false,
      "stateMutability": "view",
      "type": "function"
    },
    {
      "constant": false,
      "inputs": [
        {
          "name": "_from",
          "type": "address"
        },
        {
          "name": "_to",
          "type": "address"
        },
        {
          "name": "_tokenId",
          "type": "uint256"
        }
      ],
      "name": "safeTransferFrom",
      "outputs": [],
      "payable": false,
      "stateMutability": "nonpayable",
      "type": "function"
    },
    {
      "constant": true,
      "inputs": [],
      "name": "tokenBaseURI",
      "outputs": [
        {
          "name": "",
          "type": "string"
        }
      ],
      "payable": false,
      "stateMutability": "view",
      "type": "function"
    },
    {
      "constant": true,
      "inputs": [
        {
          "name": "_tokenId",
          "type": "uint256"
        }
      ],
      "name": "exists",
      "outputs": [
        {
          "name": "",
          "type": "bool"
        }
      ],
      "payable": false,
      "stateMutability": "view",
      "type": "function"
    },
    {
      "constant": true,
      "inputs": [
        {
          "name": "_index",
          "type": "uint256"
        }
      ],
      "name": "tokenByIndex",
      "outputs": [
        {
          "name": "",
          "type": "uint256"
        }
      ],
      "payable": false,
      "stateMutability": "view",
      "type": "function"
    },
    {
      "constant": true,
      "inputs": [
        {
          "name": "_tokenId",
          "type": "uint256"
        }
      ],
      "name": "ownerOf",
      "outputs": [
        {
          "name": "",
          "type": "address"
        }
      ],
      "payable": false,
      "stateMutability": "view",
      "type": "function"
    },
    {
      "constant": true,
      "inputs": [
        {
          "name": "_owner",
          "type": "address"
        }
      ],
      "name": "balanceOf",
      "outputs": [
        {
          "name": "",
          "type": "uint256"
        }
      ],
      "payable": false,
      "stateMutability": "view",
      "type": "function"
    },
    {
      "constant": false,
      "inputs": [],
      "name": "renounceOwnership",
      "outputs": [],
      "payable": false,
      "stateMutability": "nonpayable",
      "type": "function"
    },
    {
      "constant": false,
      "inputs": [
        {
          "name": "_operator",
          "type": "address"
        }
      ],
      "name": "addAddressToWhitelist",
      "outputs": [],
      "payable": false,
      "stateMutability": "nonpayable",
      "type": "function"
    },
    {
      "constant": true,
      "inputs": [],
      "name": "owner",
      "outputs": [
        {
          "name": "",
          "type": "address"
        }
      ],
      "payable": false,
      "stateMutability": "view",
      "type": "function"
    },
    {
      "constant": true,
      "inputs": [],
      "name": "symbol",
      "outputs": [
        {
          "name": "",
          "type": "string"
        }
      ],
      "payable": false,
      "stateMutability": "view",
      "type": "function"
    },
    {
      "constant": true,
      "inputs": [
        {
          "name": "_operator",
          "type": "address"
        }
      ],
      "name": "whitelist",
      "outputs": [
        {
          "name": "",
          "type": "bool"
        }
      ],
      "payable": false,
      "stateMutability": "view",
      "type": "function"
    },
    {
      "constant": false,
      "inputs": [
        {
          "name": "_to",
          "type": "address"
        },
        {
          "name": "_approved",
          "type": "bool"
        }
      ],
      "name": "setApprovalForAll",
      "outputs": [],
      "payable": false,
      "stateMutability": "nonpayable",
      "type": "function"
    },
    {
      "constant": false,
      "inputs": [
        {
          "name": "_from",
          "type": "address"
        },
        {
          "name": "_to",
          "type": "address"
        },
        {
          "name": "_tokenId",
          "type": "uint256"
        },
        {
          "name": "_data",
          "type": "bytes"
        }
      ],
      "name": "safeTransferFrom",
      "outputs": [],
      "payable": false,
      "stateMutability": "nonpayable",
      "type": "function"
    },
    {
      "constant": true,
      "inputs": [
        {
          "name": "_tokenId",
          "type": "uint256"
        }
      ],
      "name": "tokenURI",
      "outputs": [
        {
          "name": "",
          "type": "string"
        }
      ],
      "payable": false,
      "stateMutability": "view",
      "type": "function"
    },
    {
      "constant": false,
      "inputs": [
        {
          "name": "_operators",
          "type": "address[]"
        }
      ],
      "name": "addAddressesToWhitelist",
      "outputs": [],
      "payable": false,
      "stateMutability": "nonpayable",
      "type": "function"
    },
    {
      "constant": true,
      "inputs": [
        {
          "name": "_owner",
          "type": "address"
        },
        {
          "name": "_operator",
          "type": "address"
        }
      ],
      "name": "isApprovedForAll",
      "outputs": [
        {
          "name": "",
          "type": "bool"
        }
      ],
      "payable": false,
      "stateMutability": "view",
      "type": "function"
    },
    {
      "constant": false,
      "inputs": [
        {
          "name": "_newOwner",
          "type": "address"
        }
      ],
      "name": "transferOwnership",
      "outputs": [],
      "payable": false,
      "stateMutability": "nonpayable",
      "type": "function"
    },
    {
      "inputs": [],
      "payable": true,
      "stateMutability": "payable",
      "type": "constructor"
    },
    {
      "anonymous": false,
      "inputs": [
        {
          "indexed": true,
          "name": "operator",
          "type": "address"
        },
        {
          "indexed": false,
          "name": "role",
          "type": "string"
        }
      ],
      "name": "RoleAdded",
      "type": "event"
    },
    {
      "anonymous": false,
      "inputs": [
        {
          "indexed": true,
          "name": "operator",
          "type": "address"
        },
        {
          "indexed": false,
          "name": "role",
          "type": "string"
        }
      ],
      "name": "RoleRemoved",
      "type": "event"
    },
    {
      "anonymous": false,
      "inputs": [
        {
          "indexed": true,
          "name": "previousOwner",
          "type": "address"
        }
      ],
      "name": "OwnershipRenounced",
      "type": "event"
    },
    {
      "anonymous": false,
      "inputs": [
        {
          "indexed": true,
          "name": "previousOwner",
          "type": "address"
        },
        {
          "indexed": true,
          "name": "newOwner",
          "type": "address"
        }
      ],
      "name": "OwnershipTransferred",
      "type": "event"
    },
    {
      "anonymous": false,
      "inputs": [
        {
          "indexed": true,
          "name": "_from",
          "type": "address"
        },
        {
          "indexed": true,
          "name": "_to",
          "type": "address"
        },
        {
          "indexed": true,
          "name": "_tokenId",
          "type": "uint256"
        }
      ],
      "name": "Transfer",
      "type": "event"
    },
    {
      "anonymous": false,
      "inputs": [
        {
          "indexed": true,
          "name": "_owner",
          "type": "address"
        },
        {
          "indexed": true,
          "name": "_approved",
          "type": "address"
        },
        {
          "indexed": true,
          "name": "_tokenId",
          "type": "uint256"
        }
      ],
      "name": "Approval",
      "type": "event"
    },
    {
      "anonymous": false,
      "inputs": [
        {
          "indexed": true,
          "name": "_owner",
          "type": "address"
        },
        {
          "indexed": true,
          "name": "_operator",
          "type": "address"
        },
        {
          "indexed": false,
          "name": "_approved",
          "type": "bool"
        }
      ],
      "name": "ApprovalForAll",
      "type": "event"
    },
    {
      "constant": false,
      "inputs": [
        {
          "name": "to",
          "type": "address"
        },
        {
          "name": "tokenId",
          "type": "uint256"
        }
      ],
      "name": "mint",
      "outputs": [
        {
          "name": "",
          "type": "bool"
        }
      ],
      "payable": false,
      "stateMutability": "nonpayable",
      "type": "function"
    },
    {
      "constant": false,
      "inputs": [
        {
          "name": "tokenId",
          "type": "uint256"
        }
      ],
      "name": "burn",
      "outputs": [],
      "payable": false,
      "stateMutability": "nonpayable",
      "type": "function"
    },
    {
      "constant": false,
      "inputs": [
        {
          "name": "tokenId",
          "type": "uint256"
        },
        {
          "name": "uri",
          "type": "string"
        }
      ],
      "name": "setTokenURI",
      "outputs": [],
      "payable": false,
      "stateMutability": "nonpayable",
      "type": "function"
    },
    {
      "constant": false,
      "inputs": [
        {
          "name": "_newBaseURI",
          "type": "string"
        }
      ],
      "name": "setTokenBaseURI",
      "outputs": [],
      "payable": false,
      "stateMutability": "nonpayable",
      "type": "function"
    }
  ],
  "bytecode": "0x60c0604052601c60808190527f68747470733a2f2f697066732e696e667572612e696f2f697066732f0000000060a09081526200004091600e919062000261565b50604080518082018252600c81527f43727970746f4b61696a757300000000000000000000000000000000000000006020808301919091528251808401909352600683527f4b41494a555300000000000000000000000000000000000000000000000000009083015290620000de7f01ffc9a700000000000000000000000000000000000000000000000000000000640100000000620001f4810204565b620001127f80ac58cd00000000000000000000000000000000000000000000000000000000640100000000620001f4810204565b620001467f4f558e7900000000000000000000000000000000000000000000000000000000640100000000620001f4810204565b81516200015b90600590602085019062000261565b5080516200017190600690602084019062000261565b50620001a67f780e9d6300000000000000000000000000000000000000000000000000000000640100000000620001f4810204565b620001da7f5b5e139f00000000000000000000000000000000000000000000000000000000640100000000620001f4810204565b5050600c8054600160a060020a0319163317905562000306565b7fffffffff0000000000000000000000000000000000000000000000000000000080821614156200022457600080fd5b7fffffffff00000000000000000000000000000000000000000000000000000000166000908152602081905260409020805460ff19166001179055565b828054600181600116156101000203166002900490600052602060002090601f016020900481019282601f10620002a457805160ff1916838001178555620002d4565b82800160010185558215620002d4579182015b82811115620002d4578251825591602001919060010190620002b7565b50620002e2929150620002e6565b5090565b6200030391905b80821115620002e25760008155600101620002ed565b90565b611df380620003166000396000f3006080604052600436106101ab5763ffffffff7c010000000000000000000000000000000000000000000000000000000060003504166301ffc9a781146101b057806306fdde03146101e6578063081812fc14610270578063095ea7b3146102a45780630988ca8c146102ca578063162094c41461033157806318160ddd1461038f57806318b919e9146103b657806319fa8f50146103cb578063217fe6c6146103fd57806323b872dd1461046457806324953eaa1461048e578063286dd3f5146104e35780632f745c591461050457806340c10f191461052857806342842e0e1461054c57806342966c68146105765780634e99b8001461058e5780634f558e79146105a35780634f6ccce7146105bb5780636352211e146105d357806370a08231146105eb578063715018a61461060c5780637b9417c8146106215780638da5cb5b146106425780638ef79e911461065757806395d89b41146106775780639b19251a1461068c578063a22cb465146106ad578063b88d4fde146106d3578063c87b56dd14610742578063e2ec6ec31461075a578063e985e9c5146107af578063f2fde38b146107d6575b600080fd5b3480156101bc57600080fd5b506101d2600160e060020a0319600435166107f7565b604080519115158252519081900360200190f35b3480156101f257600080fd5b506101fb610816565b6040805160208082528351818301528351919283929083019185019080838360005b8381101561023557818101518382015260200161021d565b50505050905090810190601f1680156102625780820380516001836020036101000a031916815260200191505b509250505060405180910390f35b34801561027c57600080fd5b506102886004356108ad565b60408051600160a060020a039092168252519081900360200190f35b3480156102b057600080fd5b506102c8600160a060020a03600435166024356108c8565b005b3480156102d657600080fd5b5060408051602060046024803582810135601f81018590048502860185019096528585526102c8958335600160a060020a031695369560449491939091019190819084018382808284375094975061097e9650505050505050565b34801561033d57600080fd5b5060408051602060046024803582810135601f81018590048502860185019096528585526102c89583359536956044949193909101919081908401838280828437509497506109ec9650505050505050565b34801561039b57600080fd5b506103a4610a29565b60408051918252519081900360200190f35b3480156103c257600080fd5b506101fb610a2f565b3480156103d757600080fd5b506103e0610a54565b60408051600160e060020a03199092168252519081900360200190f35b34801561040957600080fd5b5060408051602060046024803582810135601f81018590048502860185019096528585526101d2958335600160a060020a0316953695604494919390910191908190840183828082843750949750610a789650505050505050565b34801561047057600080fd5b506102c8600160a060020a0360043581169060243516604435610aeb565b34801561049a57600080fd5b50604080516020600480358082013583810280860185019096528085526102c895369593946024949385019291829185019084908082843750949750610b8e9650505050505050565b3480156104ef57600080fd5b506102c8600160a060020a0360043516610bdd565b34801561051057600080fd5b506103a4600160a060020a0360043516602435610c24565b34801561053457600080fd5b506101d2600160a060020a0360043516602435610c71565b34801561055857600080fd5b506102c8600160a060020a0360043581169060243516604435610cb5565b34801561058257600080fd5b506102c8600435610cd1565b34801561059a57600080fd5b506101fb610d2e565b3480156105af57600080fd5b506101d2600435610dbc565b3480156105c757600080fd5b506103a4600435610dd9565b3480156105df57600080fd5b50610288600435610e0e565b3480156105f757600080fd5b506103a4600160a060020a0360043516610e38565b34801561061857600080fd5b506102c8610e6b565b34801561062d57600080fd5b506102c8600160a060020a0360043516610ed9565b34801561064e57600080fd5b50610288610f1d565b34801561066357600080fd5b506102c86004803560248101910135610f2c565b34801561068357600080fd5b506101fb610fda565b34801561069857600080fd5b506101d2600160a060020a036004351661103b565b3480156106b957600080fd5b506102c8600160a060020a0360043516602435151561106a565b3480156106df57600080fd5b50604080516020601f6064356004818101359283018490048402850184019095528184526102c894600160a060020a0381358116956024803590921695604435953695608494019181908401838280828437509497506110ee9650505050505050565b34801561074e57600080fd5b506101fb600435611110565b34801561076657600080fd5b50604080516020600480358082013583810280860185019096528085526102c8953695939460249493850192918291850190849080828437509497506111c59650505050505050565b3480156107bb57600080fd5b506101d2600160a060020a0360043581169060243516611214565b3480156107e257600080fd5b506102c8600160a060020a0360043516611242565b600160e060020a03191660009081526020819052604090205460ff1690565b60058054604080516020601f60026000196101006001881615020190951694909404938401819004810282018101909252828152606093909290918301828280156108a25780601f10610877576101008083540402835291602001916108a2565b820191906000526020600020905b81548152906001019060200180831161088557829003601f168201915b505050505090505b90565b600090815260026020526040902054600160a060020a031690565b60006108d382610e0e565b9050600160a060020a0383811690821614156108ee57600080fd5b33600160a060020a038216148061090a575061090a8133611214565b151561091557600080fd5b600082815260026020526040808220805473ffffffffffffffffffffffffffffffffffffffff1916600160a060020a0387811691821790925591518593918516917f8c5be1e5ebec7d5bd14f71427d1e84f3dd0314c0f7b2291e5b200ac8c7c3b92591a4505050565b6109e882600d836040518082805190602001908083835b602083106109b45780518252601f199092019160209182019101610995565b51815160209384036101000a6000190180199092169116179052920194855250604051938490030190922092915050611262565b5050565b33610a1a81604080519081016040528060098152602001600080516020611da883398151915281525061097e565b610a248383611277565b505050565b60095490565b6040805180820190915260098152600080516020611da8833981519152602082015281565b7f01ffc9a70000000000000000000000000000000000000000000000000000000081565b6000610ae483600d846040518082805190602001908083835b60208310610ab05780518252601f199092019160209182019101610a91565b51815160209384036101000a60001901801990921691161790529201948552506040519384900301909220929150506112aa565b9392505050565b610af533826112c9565b1515610b0057600080fd5b600160a060020a0383161515610b1557600080fd5b600160a060020a0382161515610b2a57600080fd5b610b348382611328565b610b3e8382611397565b610b48828261149e565b8082600160a060020a031684600160a060020a03167fddf252ad1be2c89b69c2b068fc378daa952ba7f163c4a11628f55a4df523b3ef60405160405180910390a4505050565b600c54600090600160a060020a03163314610ba857600080fd5b5060005b81518110156109e857610bd58282815181101515610bc657fe5b90602001906020020151610bdd565b600101610bac565b600c54600160a060020a03163314610bf457600080fd5b610c2181604080519081016040528060098152602001600080516020611da88339815191528152506114e7565b50565b6000610c2f83610e38565b8210610c3a57600080fd5b600160a060020a0383166000908152600760205260409020805483908110610c5e57fe5b9060005260206000200154905092915050565b600033610ca181604080519081016040528060098152602001600080516020611da883398151915281525061097e565b610cab84846115f8565b5060019392505050565b610a2483838360206040519081016040528060008152506110ee565b33610cff81604080519081016040528060098152602001600080516020611da883398151915281525061097e565b610d11610d0b83610e0e565b33611214565b1515610d1c57600080fd5b6109e8610d2883610e0e565b83611647565b600e805460408051602060026001851615610100026000190190941693909304601f81018490048402820184019092528181529291830182828015610db45780601f10610d8957610100808354040283529160200191610db4565b820191906000526020600020905b815481529060010190602001808311610d9757829003601f168201915b505050505081565b600090815260016020526040902054600160a060020a0316151590565b6000610de3610a29565b8210610dee57600080fd5b6009805483908110610dfc57fe5b90600052602060002001549050919050565b600081815260016020526040812054600160a060020a0316801515610e3257600080fd5b92915050565b6000600160a060020a0382161515610e4f57600080fd5b50600160a060020a031660009081526003602052604090205490565b600c54600160a060020a03163314610e8257600080fd5b600c54604051600160a060020a03909116907ff8df31144d9c2f0f6b59d69b8b98abd5459d07f2742c4df920b25aae33c6482090600090a2600c805473ffffffffffffffffffffffffffffffffffffffff19169055565b600c54600160a060020a03163314610ef057600080fd5b610c2181604080519081016040528060098152602001600080516020611da8833981519152815250611741565b600c54600160a060020a031681565b33610f5a81604080519081016040528060098152602001600080516020611da883398151915281525061097e565b811515610fc857604080517f08c379a000000000000000000000000000000000000000000000000000000000815260206004820152601060248201527f426173652055524920696e76616c696400000000000000000000000000000000604482015290519081900360640190fd5b610fd4600e8484611c3d565b50505050565b60068054604080516020601f60026000196101006001881615020190951694909404938401819004810282018101909252828152606093909290918301828280156108a25780601f10610877576101008083540402835291602001916108a2565b6000610e3282604080519081016040528060098152602001600080516020611da8833981519152815250610a78565b600160a060020a03821633141561108057600080fd5b336000818152600460209081526040808320600160a060020a03871680855290835292819020805460ff1916861515908117909155815190815290519293927f17307eab39ab6107e8899845ad3d59bd9653f200f220920489ca2b5937696c31929181900390910190a35050565b6110f9848484610aeb565b61110584848484611813565b1515610fd457600080fd5b606061111b82610dbc565b151561112657600080fd5b6000828152600b602090815260409182902080548351601f6002600019610100600186161502019093169290920491820184900484028101840190945280845290918301828280156111b95780601f1061118e576101008083540402835291602001916111b9565b820191906000526020600020905b81548152906001019060200180831161119c57829003601f168201915b50505050509050919050565b600c54600090600160a060020a031633146111df57600080fd5b5060005b81518110156109e85761120c82828151811015156111fd57fe5b90602001906020020151610ed9565b6001016111e3565b600160a060020a03918216600090815260046020908152604080832093909416825291909152205460ff1690565b600c54600160a060020a0316331461125957600080fd5b610c2181611980565b61126c82826112aa565b15156109e857600080fd5b61128082610dbc565b151561128b57600080fd5b6000828152600b602090815260409091208251610a2492840190611cbb565b600160a060020a03166000908152602091909152604090205460ff1690565b6000806112d583610e0e565b905080600160a060020a031684600160a060020a03161480611310575083600160a060020a0316611305846108ad565b600160a060020a0316145b8061132057506113208185611214565b949350505050565b81600160a060020a031661133b82610e0e565b600160a060020a03161461134e57600080fd5b600081815260026020526040902054600160a060020a0316156109e8576000908152600260205260409020805473ffffffffffffffffffffffffffffffffffffffff1916905550565b60008060006113a685856119fe565b600084815260086020908152604080832054600160a060020a03891684526007909252909120549093506113e190600163ffffffff611a9416565b600160a060020a03861660009081526007602052604090208054919350908390811061140957fe5b90600052602060002001549050806007600087600160a060020a0316600160a060020a031681526020019081526020016000208481548110151561144957fe5b6000918252602080832090910192909255600160a060020a0387168152600790915260409020805490611480906000198301611d29565b50600093845260086020526040808520859055908452909220555050565b60006114aa8383611aa6565b50600160a060020a039091166000908152600760209081526040808320805460018101825590845282842081018590559383526008909152902055565b61155182600d836040518082805190602001908083835b6020831061151d5780518252601f1990920191602091820191016114fe565b51815160209384036101000a6000190180199092169116179052920194855250604051938490030190922092915050611b36565b81600160a060020a03167fd211483f91fc6eff862467f8de606587a30c8fc9981056f051b897a418df803a826040518080602001828103825283818151815260200191508051906020019080838360005b838110156115ba5781810151838201526020016115a2565b50505050905090810190601f1680156115e75780820380516001836020036101000a031916815260200191505b509250505060405180910390a25050565b6116028282611b58565b600980546000838152600a60205260408120829055600182018355919091527f6e1540171b6c0c960b71a7020d9f60077f6af931a8bbf590da0223dacf75c7af015550565b60008060006116568585611bb3565b6000848152600b60205260409020546002600019610100600184161502019091160415611694576000848152600b6020526040812061169491611d4d565b6000848152600a60205260409020546009549093506116ba90600163ffffffff611a9416565b91506009828154811015156116cb57fe5b90600052602060002001549050806009848154811015156116e857fe5b6000918252602082200191909155600980548490811061170457fe5b6000918252602090912001556009805490611723906000198301611d29565b506000938452600a6020526040808520859055908452909220555050565b6117ab82600d836040518082805190602001908083835b602083106117775780518252601f199092019160209182019101611758565b51815160209384036101000a6000190180199092169116179052920194855250604051938490030190922092915050611c03565b81600160a060020a03167fbfec83d64eaa953f2708271a023ab9ee82057f8f3578d548c1a4ba0b5b70048982604051808060200182810382528381815181526020019150805190602001908083836000838110156115ba5781810151838201526020016115a2565b60008061182885600160a060020a0316611c28565b15156118375760019150611977565b6040517f150b7a020000000000000000000000000000000000000000000000000000000081523360048201818152600160a060020a03898116602485015260448401889052608060648501908152875160848601528751918a169463150b7a0294938c938b938b93909160a490910190602085019080838360005b838110156118ca5781810151838201526020016118b2565b50505050905090810190601f1680156118f75780820380516001836020036101000a031916815260200191505b5095505050505050602060405180830381600087803b15801561191957600080fd5b505af115801561192d573d6000803e3d6000fd5b505050506040513d602081101561194357600080fd5b5051600160e060020a031981167f150b7a020000000000000000000000000000000000000000000000000000000014925090505b50949350505050565b600160a060020a038116151561199557600080fd5b600c54604051600160a060020a038084169216907f8be0079c531659141344cd1fd0a4f28419497f9722a3daafe3b4186f6b6457e090600090a3600c805473ffffffffffffffffffffffffffffffffffffffff1916600160a060020a0392909216919091179055565b81600160a060020a0316611a1182610e0e565b600160a060020a031614611a2457600080fd5b600160a060020a038216600090815260036020526040902054611a4e90600163ffffffff611a9416565b600160a060020a03909216600090815260036020908152604080832094909455918152600190915220805473ffffffffffffffffffffffffffffffffffffffff19169055565b600082821115611aa057fe5b50900390565b600081815260016020526040902054600160a060020a031615611ac857600080fd5b6000818152600160208181526040808420805473ffffffffffffffffffffffffffffffffffffffff1916600160a060020a0388169081179091558452600390915290912054611b1691611c30565b600160a060020a0390921660009081526003602052604090209190915550565b600160a060020a0316600090815260209190915260409020805460ff19169055565b600160a060020a0382161515611b6d57600080fd5b611b77828261149e565b6040518190600160a060020a038416906000907fddf252ad1be2c89b69c2b068fc378daa952ba7f163c4a11628f55a4df523b3ef908290a45050565b611bbd8282611328565b611bc78282611397565b6040518190600090600160a060020a038516907fddf252ad1be2c89b69c2b068fc378daa952ba7f163c4a11628f55a4df523b3ef908390a45050565b600160a060020a0316600090815260209190915260409020805460ff19166001179055565b6000903b1190565b81810182811015610e3257fe5b828054600181600116156101000203166002900490600052602060002090601f016020900481019282601f10611c7e5782800160ff19823516178555611cab565b82800160010185558215611cab579182015b82811115611cab578235825591602001919060010190611c90565b50611cb7929150611d8d565b5090565b828054600181600116156101000203166002900490600052602060002090601f016020900481019282601f10611cfc57805160ff1916838001178555611cab565b82800160010185558215611cab579182015b82811115611cab578251825591602001919060010190611d0e565b815481835581811115610a2457600083815260209020610a24918101908301611d8d565b50805460018160011615610100020316600290046000825580601f10611d735750610c21565b601f016020900490600052602060002090810190610c2191905b6108aa91905b80821115611cb75760008155600101611d93560077686974656c6973740000000000000000000000000000000000000000000000a165627a7a723058204291a66e45cd20939a9967cadd06808b48da5c93299f6d60434a0864e6c30f100029",
  "source": "pragma solidity ^0.4.24;\n\nimport \"openzeppelin-solidity/contracts/math/SafeMath.sol\";\nimport \"openzeppelin-solidity/contracts/access/Whitelist.sol\";\nimport \"openzeppelin-solidity/contracts/token/ERC721/ERC721Token.sol\";\n\n\n/**\n* @title CryptoKaijus\n*/\ncontract CryptoKaijus is ERC721Token, Whitelist {\n  using SafeMath for uint256;\n\n  string public tokenBaseURI = \"https://ipfs.infura.io/ipfs/\";\n\n  constructor () public payable ERC721Token(\"CryptoKaijus\", \"KAIJUS\") {\n  }\n\n  function mint(address to, uint256 tokenId)\n  public\n  onlyIfWhitelisted(msg.sender)\n  returns (bool) {\n    _mint(to, tokenId);\n    return true;\n  }\n\n  function burn(uint256 tokenId)\n  public\n  onlyIfWhitelisted(msg.sender) {\n    require(isApprovedForAll(ownerOf(tokenId), msg.sender));\n    _burn(ownerOf(tokenId), tokenId);\n  }\n\n  function setTokenURI(uint256 tokenId, string uri)\n  public\n  onlyIfWhitelisted(msg.sender) {\n    _setTokenURI(tokenId, uri);\n  }\n\n  function setTokenBaseURI(string _newBaseURI)\n  external\n  onlyIfWhitelisted(msg.sender) {\n    require(bytes(_newBaseURI).length != 0, \"Base URI invalid\");\n    tokenBaseURI = _newBaseURI;\n  }\n\n}\n",
  "sourcePath": "/Users/jamesmorgan/Dropbox/workspace-blockrocket/crypto-kaijus/contracts/CryptoKaijus.sol",
  "compiler": {
    "name": "solc",
    "version": "0.4.24+commit.e67f0147.Emscripten.clang"
  },
  "schemaVersion": "3.0.0-beta.0",
  "updatedAt": "2018-09-10T13:36:09.989Z"
}