{
  "contractName": "CryptoKaijus",
  "abi": [
    {
      "constant": true,
      "inputs": [
        {
          "name": "_interfaceId",
          "type": "bytes4"
        }
      ],
      "name": "supportsInterface",
      "outputs": [
        {
          "name": "",
          "type": "bool"
        }
      ],
      "payable": false,
      "stateMutability": "view",
      "type": "function",
      "signature": "0x01ffc9a7"
    },
    {
      "constant": true,
      "inputs": [],
      "name": "name",
      "outputs": [
        {
          "name": "",
          "type": "string"
        }
      ],
      "payable": false,
      "stateMutability": "view",
      "type": "function",
      "signature": "0x06fdde03"
    },
    {
      "constant": true,
      "inputs": [
        {
          "name": "_tokenId",
          "type": "uint256"
        }
      ],
      "name": "getApproved",
      "outputs": [
        {
          "name": "",
          "type": "address"
        }
      ],
      "payable": false,
      "stateMutability": "view",
      "type": "function",
      "signature": "0x081812fc"
    },
    {
      "constant": false,
      "inputs": [
        {
          "name": "_to",
          "type": "address"
        },
        {
          "name": "_tokenId",
          "type": "uint256"
        }
      ],
      "name": "approve",
      "outputs": [],
      "payable": false,
      "stateMutability": "nonpayable",
      "type": "function",
      "signature": "0x095ea7b3"
    },
    {
      "constant": true,
      "inputs": [
        {
          "name": "_operator",
          "type": "address"
        },
        {
          "name": "_role",
          "type": "string"
        }
      ],
      "name": "checkRole",
      "outputs": [],
      "payable": false,
      "stateMutability": "view",
      "type": "function",
      "signature": "0x0988ca8c"
    },
    {
      "constant": true,
      "inputs": [],
      "name": "totalSupply",
      "outputs": [
        {
          "name": "",
          "type": "uint256"
        }
      ],
      "payable": false,
      "stateMutability": "view",
      "type": "function",
      "signature": "0x18160ddd"
    },
    {
      "constant": true,
      "inputs": [],
      "name": "ROLE_WHITELISTED",
      "outputs": [
        {
          "name": "",
          "type": "string"
        }
      ],
      "payable": false,
      "stateMutability": "view",
      "type": "function",
      "signature": "0x18b919e9"
    },
    {
      "constant": true,
      "inputs": [],
      "name": "InterfaceId_ERC165",
      "outputs": [
        {
          "name": "",
          "type": "bytes4"
        }
      ],
      "payable": false,
      "stateMutability": "view",
      "type": "function",
      "signature": "0x19fa8f50"
    },
    {
      "constant": true,
      "inputs": [
        {
          "name": "_operator",
          "type": "address"
        },
        {
          "name": "_role",
          "type": "string"
        }
      ],
      "name": "hasRole",
      "outputs": [
        {
          "name": "",
          "type": "bool"
        }
      ],
      "payable": false,
      "stateMutability": "view",
      "type": "function",
      "signature": "0x217fe6c6"
    },
    {
      "constant": false,
      "inputs": [
        {
          "name": "_from",
          "type": "address"
        },
        {
          "name": "_to",
          "type": "address"
        },
        {
          "name": "_tokenId",
          "type": "uint256"
        }
      ],
      "name": "transferFrom",
      "outputs": [],
      "payable": false,
      "stateMutability": "nonpayable",
      "type": "function",
      "signature": "0x23b872dd"
    },
    {
      "constant": false,
      "inputs": [
        {
          "name": "_operators",
          "type": "address[]"
        }
      ],
      "name": "removeAddressesFromWhitelist",
      "outputs": [],
      "payable": false,
      "stateMutability": "nonpayable",
      "type": "function",
      "signature": "0x24953eaa"
    },
    {
      "constant": false,
      "inputs": [
        {
          "name": "_operator",
          "type": "address"
        }
      ],
      "name": "removeAddressFromWhitelist",
      "outputs": [],
      "payable": false,
      "stateMutability": "nonpayable",
      "type": "function",
      "signature": "0x286dd3f5"
    },
    {
      "constant": true,
      "inputs": [
        {
          "name": "_owner",
          "type": "address"
        },
        {
          "name": "_index",
          "type": "uint256"
        }
      ],
      "name": "tokenOfOwnerByIndex",
      "outputs": [
        {
          "name": "",
          "type": "uint256"
        }
      ],
      "payable": false,
      "stateMutability": "view",
      "type": "function",
      "signature": "0x2f745c59"
    },
    {
      "constant": true,
      "inputs": [],
      "name": "tokenIdPointer",
      "outputs": [
        {
          "name": "",
          "type": "uint256"
        }
      ],
      "payable": false,
      "stateMutability": "view",
      "type": "function",
      "signature": "0x3b3a1a7a"
    },
    {
      "constant": false,
      "inputs": [
        {
          "name": "_from",
          "type": "address"
        },
        {
          "name": "_to",
          "type": "address"
        },
        {
          "name": "_tokenId",
          "type": "uint256"
        }
      ],
      "name": "safeTransferFrom",
      "outputs": [],
      "payable": false,
      "stateMutability": "nonpayable",
      "type": "function",
      "signature": "0x42842e0e"
    },
    {
      "constant": true,
      "inputs": [],
      "name": "tokenBaseURI",
      "outputs": [
        {
          "name": "",
          "type": "string"
        }
      ],
      "payable": false,
      "stateMutability": "view",
      "type": "function",
      "signature": "0x4e99b800"
    },
    {
      "constant": true,
      "inputs": [
        {
          "name": "_tokenId",
          "type": "uint256"
        }
      ],
      "name": "exists",
      "outputs": [
        {
          "name": "",
          "type": "bool"
        }
      ],
      "payable": false,
      "stateMutability": "view",
      "type": "function",
      "signature": "0x4f558e79"
    },
    {
      "constant": true,
      "inputs": [
        {
          "name": "_index",
          "type": "uint256"
        }
      ],
      "name": "tokenByIndex",
      "outputs": [
        {
          "name": "",
          "type": "uint256"
        }
      ],
      "payable": false,
      "stateMutability": "view",
      "type": "function",
      "signature": "0x4f6ccce7"
    },
    {
      "constant": true,
      "inputs": [
        {
          "name": "_tokenId",
          "type": "uint256"
        }
      ],
      "name": "ownerOf",
      "outputs": [
        {
          "name": "",
          "type": "address"
        }
      ],
      "payable": false,
      "stateMutability": "view",
      "type": "function",
      "signature": "0x6352211e"
    },
    {
      "constant": true,
      "inputs": [
        {
          "name": "_owner",
          "type": "address"
        }
      ],
      "name": "balanceOf",
      "outputs": [
        {
          "name": "",
          "type": "uint256"
        }
      ],
      "payable": false,
      "stateMutability": "view",
      "type": "function",
      "signature": "0x70a08231"
    },
    {
      "constant": false,
      "inputs": [],
      "name": "renounceOwnership",
      "outputs": [],
      "payable": false,
      "stateMutability": "nonpayable",
      "type": "function",
      "signature": "0x715018a6"
    },
    {
      "constant": false,
      "inputs": [
        {
          "name": "_operator",
          "type": "address"
        }
      ],
      "name": "addAddressToWhitelist",
      "outputs": [],
      "payable": false,
      "stateMutability": "nonpayable",
      "type": "function",
      "signature": "0x7b9417c8"
    },
    {
      "constant": true,
      "inputs": [],
      "name": "owner",
      "outputs": [
        {
          "name": "",
          "type": "address"
        }
      ],
      "payable": false,
      "stateMutability": "view",
      "type": "function",
      "signature": "0x8da5cb5b"
    },
    {
      "constant": true,
      "inputs": [],
      "name": "symbol",
      "outputs": [
        {
          "name": "",
          "type": "string"
        }
      ],
      "payable": false,
      "stateMutability": "view",
      "type": "function",
      "signature": "0x95d89b41"
    },
    {
      "constant": true,
      "inputs": [
        {
          "name": "_operator",
          "type": "address"
        }
      ],
      "name": "whitelist",
      "outputs": [
        {
          "name": "",
          "type": "bool"
        }
      ],
      "payable": false,
      "stateMutability": "view",
      "type": "function",
      "signature": "0x9b19251a"
    },
    {
      "constant": false,
      "inputs": [
        {
          "name": "_to",
          "type": "address"
        },
        {
          "name": "_approved",
          "type": "bool"
        }
      ],
      "name": "setApprovalForAll",
      "outputs": [],
      "payable": false,
      "stateMutability": "nonpayable",
      "type": "function",
      "signature": "0xa22cb465"
    },
    {
      "constant": false,
      "inputs": [
        {
          "name": "_from",
          "type": "address"
        },
        {
          "name": "_to",
          "type": "address"
        },
        {
          "name": "_tokenId",
          "type": "uint256"
        },
        {
          "name": "_data",
          "type": "bytes"
        }
      ],
      "name": "safeTransferFrom",
      "outputs": [],
      "payable": false,
      "stateMutability": "nonpayable",
      "type": "function",
      "signature": "0xb88d4fde"
    },
    {
      "constant": true,
      "inputs": [
        {
          "name": "_tokenId",
          "type": "uint256"
        }
      ],
      "name": "tokenURI",
      "outputs": [
        {
          "name": "",
          "type": "string"
        }
      ],
      "payable": false,
      "stateMutability": "view",
      "type": "function",
      "signature": "0xc87b56dd"
    },
    {
      "constant": false,
      "inputs": [
        {
          "name": "_operators",
          "type": "address[]"
        }
      ],
      "name": "addAddressesToWhitelist",
      "outputs": [],
      "payable": false,
      "stateMutability": "nonpayable",
      "type": "function",
      "signature": "0xe2ec6ec3"
    },
    {
      "constant": true,
      "inputs": [
        {
          "name": "_owner",
          "type": "address"
        },
        {
          "name": "_operator",
          "type": "address"
        }
      ],
      "name": "isApprovedForAll",
      "outputs": [
        {
          "name": "",
          "type": "bool"
        }
      ],
      "payable": false,
      "stateMutability": "view",
      "type": "function",
      "signature": "0xe985e9c5"
    },
    {
      "constant": false,
      "inputs": [
        {
          "name": "_newOwner",
          "type": "address"
        }
      ],
      "name": "transferOwnership",
      "outputs": [],
      "payable": false,
      "stateMutability": "nonpayable",
      "type": "function",
      "signature": "0xf2fde38b"
    },
    {
      "inputs": [],
      "payable": false,
      "stateMutability": "nonpayable",
      "type": "constructor",
      "signature": "constructor"
    },
    {
      "anonymous": false,
      "inputs": [
        {
          "indexed": true,
          "name": "operator",
          "type": "address"
        },
        {
          "indexed": false,
          "name": "role",
          "type": "string"
        }
      ],
      "name": "RoleAdded",
      "type": "event",
      "signature": "0xbfec83d64eaa953f2708271a023ab9ee82057f8f3578d548c1a4ba0b5b700489"
    },
    {
      "anonymous": false,
      "inputs": [
        {
          "indexed": true,
          "name": "operator",
          "type": "address"
        },
        {
          "indexed": false,
          "name": "role",
          "type": "string"
        }
      ],
      "name": "RoleRemoved",
      "type": "event",
      "signature": "0xd211483f91fc6eff862467f8de606587a30c8fc9981056f051b897a418df803a"
    },
    {
      "anonymous": false,
      "inputs": [
        {
          "indexed": true,
          "name": "previousOwner",
          "type": "address"
        }
      ],
      "name": "OwnershipRenounced",
      "type": "event",
      "signature": "0xf8df31144d9c2f0f6b59d69b8b98abd5459d07f2742c4df920b25aae33c64820"
    },
    {
      "anonymous": false,
      "inputs": [
        {
          "indexed": true,
          "name": "previousOwner",
          "type": "address"
        },
        {
          "indexed": true,
          "name": "newOwner",
          "type": "address"
        }
      ],
      "name": "OwnershipTransferred",
      "type": "event",
      "signature": "0x8be0079c531659141344cd1fd0a4f28419497f9722a3daafe3b4186f6b6457e0"
    },
    {
      "anonymous": false,
      "inputs": [
        {
          "indexed": true,
          "name": "_from",
          "type": "address"
        },
        {
          "indexed": true,
          "name": "_to",
          "type": "address"
        },
        {
          "indexed": true,
          "name": "_tokenId",
          "type": "uint256"
        }
      ],
      "name": "Transfer",
      "type": "event",
      "signature": "0xddf252ad1be2c89b69c2b068fc378daa952ba7f163c4a11628f55a4df523b3ef"
    },
    {
      "anonymous": false,
      "inputs": [
        {
          "indexed": true,
          "name": "_owner",
          "type": "address"
        },
        {
          "indexed": true,
          "name": "_approved",
          "type": "address"
        },
        {
          "indexed": true,
          "name": "_tokenId",
          "type": "uint256"
        }
      ],
      "name": "Approval",
      "type": "event",
      "signature": "0x8c5be1e5ebec7d5bd14f71427d1e84f3dd0314c0f7b2291e5b200ac8c7c3b925"
    },
    {
      "anonymous": false,
      "inputs": [
        {
          "indexed": true,
          "name": "_owner",
          "type": "address"
        },
        {
          "indexed": true,
          "name": "_operator",
          "type": "address"
        },
        {
          "indexed": false,
          "name": "_approved",
          "type": "bool"
        }
      ],
      "name": "ApprovalForAll",
      "type": "event",
      "signature": "0x17307eab39ab6107e8899845ad3d59bd9653f200f220920489ca2b5937696c31"
    },
    {
      "constant": false,
      "inputs": [
        {
          "name": "nfcId",
          "type": "bytes32"
        },
        {
          "name": "tokenURI",
          "type": "string"
        },
        {
          "name": "birthDate",
          "type": "uint256"
        }
      ],
      "name": "mint",
      "outputs": [
        {
          "name": "",
          "type": "bool"
        }
      ],
      "payable": false,
      "stateMutability": "nonpayable",
      "type": "function",
      "signature": "0x50e862db"
    },
    {
      "constant": false,
      "inputs": [
        {
          "name": "to",
          "type": "address"
        },
        {
          "name": "nfcId",
          "type": "bytes32"
        },
        {
          "name": "tokenURI",
          "type": "string"
        },
        {
          "name": "birthDate",
          "type": "uint256"
        }
      ],
      "name": "mintTo",
      "outputs": [
        {
          "name": "",
          "type": "bool"
        }
      ],
      "payable": false,
      "stateMutability": "nonpayable",
      "type": "function",
      "signature": "0xd4264af0"
    },
    {
      "constant": false,
      "inputs": [
        {
          "name": "tokenId",
          "type": "uint256"
        }
      ],
      "name": "burn",
      "outputs": [],
      "payable": false,
      "stateMutability": "nonpayable",
      "type": "function",
      "signature": "0x42966c68"
    },
    {
      "constant": false,
      "inputs": [
        {
          "name": "tokenId",
          "type": "uint256"
        },
        {
          "name": "uri",
          "type": "string"
        }
      ],
      "name": "setTokenURI",
      "outputs": [],
      "payable": false,
      "stateMutability": "nonpayable",
      "type": "function",
      "signature": "0x162094c4"
    },
    {
      "constant": false,
      "inputs": [
        {
          "name": "_newBaseURI",
          "type": "string"
        }
      ],
      "name": "setTokenBaseURI",
      "outputs": [],
      "payable": false,
      "stateMutability": "nonpayable",
      "type": "function",
      "signature": "0x8ef79e91"
    }
  ],
  "bytecode": "0x60c0604052601c60808190527f68747470733a2f2f697066732e696e667572612e696f2f697066732f0000000060a09081526200004091600e919062000441565b5060016012553480156200005357600080fd5b50604080518082018252600c81527f43727970746f4b61696a757300000000000000000000000000000000000000006020808301919091528251808401909352600683527f4b41494a555300000000000000000000000000000000000000000000000000009083015290620000f17f01ffc9a7000000000000000000000000000000000000000000000000000000006401000000006200021e810204565b620001257f80ac58cd000000000000000000000000000000000000000000000000000000006401000000006200021e810204565b620001597f4f558e79000000000000000000000000000000000000000000000000000000006401000000006200021e810204565b81516200016e90600590602085019062000441565b5080516200018490600690602084019062000441565b50620001b97f780e9d63000000000000000000000000000000000000000000000000000000006401000000006200021e810204565b620001ed7f5b5e139f000000000000000000000000000000000000000000000000000000006401000000006200021e810204565b5050600c8054600160a060020a0319163390811790915562000218906401000000006200028b810204565b620004e6565b7fffffffff0000000000000000000000000000000000000000000000000000000080821614156200024e57600080fd5b7fffffffff00000000000000000000000000000000000000000000000000000000166000908152602081905260409020805460ff19166001179055565b600c54600160a060020a03163314620002a357600080fd5b620002f3816040805190810160405280600981526020017f77686974656c6973740000000000000000000000000000000000000000000000815250620002f6640100000000026401000000009004565b50565b6200037282600d836040518082805190602001908083835b602083106200032f5780518252601f1990920191602091820191016200030e565b51815160209384036101000a60001901801990921691161790529201948552506040519384900301909220929150506401000000006200041c810262001da91704565b81600160a060020a03167fbfec83d64eaa953f2708271a023ab9ee82057f8f3578d548c1a4ba0b5b700489826040518080602001828103825283818151815260200191508051906020019080838360005b83811015620003dd578181015183820152602001620003c3565b50505050905090810190601f1680156200040b5780820380516001836020036101000a031916815260200191505b509250505060405180910390a25050565b600160a060020a0316600090815260209190915260409020805460ff19166001179055565b828054600181600116156101000203166002900490600052602060002090601f016020900481019282601f106200048457805160ff1916838001178555620004b4565b82800160010185558215620004b4579182015b82811115620004b457825182559160200191906001019062000497565b50620004c2929150620004c6565b5090565b620004e391905b80821115620004c25760008155600101620004cd565b90565b611fe780620004f66000396000f3006080604052600436106101c15763ffffffff7c010000000000000000000000000000000000000000000000000000000060003504166301ffc9a781146101c657806306fdde03146101fc578063081812fc14610286578063095ea7b3146102ba5780630988ca8c146102e0578063162094c41461034757806318160ddd146103a557806318b919e9146103cc57806319fa8f50146103e1578063217fe6c61461041357806323b872dd1461047a57806324953eaa146104a4578063286dd3f5146104f95780632f745c591461051a5780633b3a1a7a1461053e57806342842e0e1461055357806342966c681461057d5780634e99b800146105955780634f558e79146105aa5780634f6ccce7146105c257806350e862db146105da5780636352211e1461063a57806370a0823114610652578063715018a6146106735780637b9417c8146106885780638da5cb5b146106a95780638ef79e91146106be57806395d89b41146106de5780639b19251a146106f3578063a22cb46514610714578063b88d4fde1461073a578063c87b56dd146107a9578063d4264af0146107c1578063e2ec6ec31461082c578063e985e9c514610881578063f2fde38b146108a8575b600080fd5b3480156101d257600080fd5b506101e8600160e060020a0319600435166108c9565b604080519115158252519081900360200190f35b34801561020857600080fd5b506102116108e8565b6040805160208082528351818301528351919283929083019185019080838360005b8381101561024b578181015183820152602001610233565b50505050905090810190601f1680156102785780820380516001836020036101000a031916815260200191505b509250505060405180910390f35b34801561029257600080fd5b5061029e60043561097f565b60408051600160a060020a039092168252519081900360200190f35b3480156102c657600080fd5b506102de600160a060020a036004351660243561099a565b005b3480156102ec57600080fd5b5060408051602060046024803582810135601f81018590048502860185019096528585526102de958335600160a060020a0316953695604494919390910191908190840183828082843750949750610a509650505050505050565b34801561035357600080fd5b5060408051602060046024803582810135601f81018590048502860185019096528585526102de958335953695604494919390910191908190840183828082843750949750610abe9650505050505050565b3480156103b157600080fd5b506103ba610afb565b60408051918252519081900360200190f35b3480156103d857600080fd5b50610211610b01565b3480156103ed57600080fd5b506103f6610b26565b60408051600160e060020a03199092168252519081900360200190f35b34801561041f57600080fd5b5060408051602060046024803582810135601f81018590048502860185019096528585526101e8958335600160a060020a0316953695604494919390910191908190840183828082843750949750610b4a9650505050505050565b34801561048657600080fd5b506102de600160a060020a0360043581169060243516604435610bbd565b3480156104b057600080fd5b50604080516020600480358082013583810280860185019096528085526102de95369593946024949385019291829185019084908082843750949750610c609650505050505050565b34801561050557600080fd5b506102de600160a060020a0360043516610caf565b34801561052657600080fd5b506103ba600160a060020a0360043516602435610cf6565b34801561054a57600080fd5b506103ba610d43565b34801561055f57600080fd5b506102de600160a060020a0360043581169060243516604435610d49565b34801561058957600080fd5b506102de600435610d65565b3480156105a157600080fd5b50610211610d94565b3480156105b657600080fd5b506101e8600435610e22565b3480156105ce57600080fd5b506103ba600435610e3f565b3480156105e657600080fd5b5060408051602060046024803582810135601f81018590048502860185019096528585526101e89583359536956044949193909101919081908401838280828437509497505093359450610e749350505050565b34801561064657600080fd5b5061029e600435610ebb565b34801561065e57600080fd5b506103ba600160a060020a0360043516610ee5565b34801561067f57600080fd5b506102de610f18565b34801561069457600080fd5b506102de600160a060020a0360043516610f86565b3480156106b557600080fd5b5061029e610fca565b3480156106ca57600080fd5b506102de6004803560248101910135610fd9565b3480156106ea57600080fd5b50610211611087565b3480156106ff57600080fd5b506101e8600160a060020a03600435166110e8565b34801561072057600080fd5b506102de600160a060020a03600435166024351515611117565b34801561074657600080fd5b50604080516020601f6064356004818101359283018490048402850184019095528184526102de94600160a060020a03813581169560248035909216956044359536956084940191819084018382808284375094975061119b9650505050505050565b3480156107b557600080fd5b506102116004356111bd565b3480156107cd57600080fd5b50604080516020600460443581810135601f81018490048402850184019095528484526101e8948235600160a060020a031694602480359536959460649492019190819084018382808284375094975050933594506112729350505050565b34801561083857600080fd5b50604080516020600480358082013583810280860185019096528085526102de953695939460249493850192918291850190849080828437509497506112bc9650505050505050565b34801561088d57600080fd5b506101e8600160a060020a036004358116906024351661130b565b3480156108b457600080fd5b506102de600160a060020a0360043516611339565b600160e060020a03191660009081526020819052604090205460ff1690565b60058054604080516020601f60026000196101006001881615020190951694909404938401819004810282018101909252828152606093909290918301828280156109745780601f1061094957610100808354040283529160200191610974565b820191906000526020600020905b81548152906001019060200180831161095757829003601f168201915b505050505090505b90565b600090815260026020526040902054600160a060020a031690565b60006109a582610ebb565b9050600160a060020a0383811690821614156109c057600080fd5b33600160a060020a03821614806109dc57506109dc813361130b565b15156109e757600080fd5b600082815260026020526040808220805473ffffffffffffffffffffffffffffffffffffffff1916600160a060020a0387811691821790925591518593918516917f8c5be1e5ebec7d5bd14f71427d1e84f3dd0314c0f7b2291e5b200ac8c7c3b92591a4505050565b610aba82600d836040518082805190602001908083835b60208310610a865780518252601f199092019160209182019101610a67565b51815160209384036101000a6000190180199092169116179052920194855250604051938490030190922092915050611359565b5050565b33610aec81604080519081016040528060098152602001600080516020611f9c833981519152815250610a50565b610af6838361136e565b505050565b60095490565b6040805180820190915260098152600080516020611f9c833981519152602082015281565b7f01ffc9a70000000000000000000000000000000000000000000000000000000081565b6000610bb683600d846040518082805190602001908083835b60208310610b825780518252601f199092019160209182019101610b63565b51815160209384036101000a60001901801990921691161790529201948552506040519384900301909220929150506113a1565b9392505050565b610bc733826113c0565b1515610bd257600080fd5b600160a060020a0383161515610be757600080fd5b600160a060020a0382161515610bfc57600080fd5b610c06838261141f565b610c10838261148e565b610c1a8282611595565b8082600160a060020a031684600160a060020a03167fddf252ad1be2c89b69c2b068fc378daa952ba7f163c4a11628f55a4df523b3ef60405160405180910390a4505050565b600c54600090600160a060020a03163314610c7a57600080fd5b5060005b8151811015610aba57610ca78282815181101515610c9857fe5b90602001906020020151610caf565b600101610c7e565b600c54600160a060020a03163314610cc657600080fd5b610cf381604080519081016040528060098152602001600080516020611f9c8339815191528152506115de565b50565b6000610d0183610ee5565b8210610d0c57600080fd5b600160a060020a0383166000908152600760205260409020805483908110610d3057fe5b9060005260206000200154905092915050565b60125481565b610af6838383602060405190810160405280600081525061119b565b610d77610d7182610ebb565b3361130b565b1515610d8257600080fd5b610cf3610d8e82610ebb565b826116ef565b600e805460408051602060026001851615610100026000190190941693909304601f81018490048402820184019092528181529291830182828015610e1a5780601f10610def57610100808354040283529160200191610e1a565b820191906000526020600020905b815481529060010190602001808311610dfd57829003601f168201915b505050505081565b600090815260016020526040902054600160a060020a0316151590565b6000610e49610afb565b8210610e5457600080fd5b6009805483908110610e6257fe5b90600052602060002001549050919050565b600033610ea481604080519081016040528060098152602001600080516020611f9c833981519152815250610a50565b610eb0338686866117e9565b506001949350505050565b600081815260016020526040812054600160a060020a0316801515610edf57600080fd5b92915050565b6000600160a060020a0382161515610efc57600080fd5b50600160a060020a031660009081526003602052604090205490565b600c54600160a060020a03163314610f2f57600080fd5b600c54604051600160a060020a03909116907ff8df31144d9c2f0f6b59d69b8b98abd5459d07f2742c4df920b25aae33c6482090600090a2600c805473ffffffffffffffffffffffffffffffffffffffff19169055565b600c54600160a060020a03163314610f9d57600080fd5b610cf381604080519081016040528060098152602001600080516020611f9c8339815191528152506118eb565b600c54600160a060020a031681565b3361100781604080519081016040528060098152602001600080516020611f9c833981519152815250610a50565b81151561107557604080517f08c379a000000000000000000000000000000000000000000000000000000000815260206004820152601060248201527f426173652055524920696e76616c696400000000000000000000000000000000604482015290519081900360640190fd5b611081600e8484611e31565b50505050565b60068054604080516020601f60026000196101006001881615020190951694909404938401819004810282018101909252828152606093909290918301828280156109745780601f1061094957610100808354040283529160200191610974565b6000610edf82604080519081016040528060098152602001600080516020611f9c833981519152815250610b4a565b600160a060020a03821633141561112d57600080fd5b336000818152600460209081526040808320600160a060020a03871680855290835292819020805460ff1916861515908117909155815190815290519293927f17307eab39ab6107e8899845ad3d59bd9653f200f220920489ca2b5937696c31929181900390910190a35050565b6111a6848484610bbd565b6111b2848484846119bd565b151561108157600080fd5b60606111c882610e22565b15156111d357600080fd5b6000828152600b602090815260409182902080548351601f6002600019610100600186161502019093169290920491820184900484028101840190945280845290918301828280156112665780601f1061123b57610100808354040283529160200191611266565b820191906000526020600020905b81548152906001019060200180831161124957829003601f168201915b50505050509050919050565b6000336112a281604080519081016040528060098152602001600080516020611f9c833981519152815250610a50565b6112ae868686866117e9565b600191505b50949350505050565b600c54600090600160a060020a031633146112d657600080fd5b5060005b8151811015610aba5761130382828151811015156112f457fe5b90602001906020020151610f86565b6001016112da565b600160a060020a03918216600090815260046020908152604080832093909416825291909152205460ff1690565b600c54600160a060020a0316331461135057600080fd5b610cf381611b25565b61136382826113a1565b1515610aba57600080fd5b61137782610e22565b151561138257600080fd5b6000828152600b602090815260409091208251610af692840190611eaf565b600160a060020a03166000908152602091909152604090205460ff1690565b6000806113cc83610ebb565b905080600160a060020a031684600160a060020a03161480611407575083600160a060020a03166113fc8461097f565b600160a060020a0316145b806114175750611417818561130b565b949350505050565b81600160a060020a031661143282610ebb565b600160a060020a03161461144557600080fd5b600081815260026020526040902054600160a060020a031615610aba576000908152600260205260409020805473ffffffffffffffffffffffffffffffffffffffff1916905550565b600080600061149d8585611ba3565b600084815260086020908152604080832054600160a060020a03891684526007909252909120549093506114d890600163ffffffff611c3916565b600160a060020a03861660009081526007602052604090208054919350908390811061150057fe5b90600052602060002001549050806007600087600160a060020a0316600160a060020a031681526020019081526020016000208481548110151561154057fe5b6000918252602080832090910192909255600160a060020a0387168152600790915260409020805490611577906000198301611f1d565b50600093845260086020526040808520859055908452909220555050565b60006115a18383611c4b565b50600160a060020a039091166000908152600760209081526040808320805460018101825590845282842081018590559383526008909152902055565b61164882600d836040518082805190602001908083835b602083106116145780518252601f1990920191602091820191016115f5565b51815160209384036101000a6000190180199092169116179052920194855250604051938490030190922092915050611cdb565b81600160a060020a03167fd211483f91fc6eff862467f8de606587a30c8fc9981056f051b897a418df803a826040518080602001828103825283818151815260200191508051906020019080838360005b838110156116b1578181015183820152602001611699565b50505050905090810190601f1680156116de5780820380516001836020036101000a031916815260200191505b509250505060405180910390a25050565b60008060006116fe8585611cfd565b6000848152600b6020526040902054600260001961010060018416150201909116041561173c576000848152600b6020526040812061173c91611f41565b6000848152600a602052604090205460095490935061176290600163ffffffff611c3916565b915060098281548110151561177357fe5b906000526020600020015490508060098481548110151561179057fe5b600091825260208220019190915560098054849081106117ac57fe5b60009182526020909120015560098054906117cb906000198301611f1d565b506000938452600a6020526040808520859055908452909220555050565b6000838152600f60205260408120541561188a57604080517f08c379a000000000000000000000000000000000000000000000000000000000815260206004820152602b60248201527f556e61626c6520746f206d696e74204b61696a75732077697468206475706c6960448201527f63617465204e4643204944000000000000000000000000000000000000000000606482015290519081900360840190fd5b50601254600081815260116020908152604080832085905560108252808320879055868352600f90915290208190556118c38582611d4d565b6118cd818461136e565b6012546118e190600163ffffffff611d9c16565b6012555050505050565b61195582600d836040518082805190602001908083835b602083106119215780518252601f199092019160209182019101611902565b51815160209384036101000a6000190180199092169116179052920194855250604051938490030190922092915050611da9565b81600160a060020a03167fbfec83d64eaa953f2708271a023ab9ee82057f8f3578d548c1a4ba0b5b70048982604051808060200182810382528381815181526020019150805190602001908083836000838110156116b1578181015183820152602001611699565b6000806119d285600160a060020a0316611dce565b15156119e157600191506112b3565b6040517f150b7a020000000000000000000000000000000000000000000000000000000081523360048201818152600160a060020a03898116602485015260448401889052608060648501908152875160848601528751918a169463150b7a0294938c938b938b93909160a490910190602085019080838360005b83811015611a74578181015183820152602001611a5c565b50505050905090810190601f168015611aa15780820380516001836020036101000a031916815260200191505b5095505050505050602060405180830381600087803b158015611ac357600080fd5b505af1158015611ad7573d6000803e3d6000fd5b505050506040513d6020811015611aed57600080fd5b5051600160e060020a0319167f150b7a0200000000000000000000000000000000000000000000000000000000149695505050505050565b600160a060020a0381161515611b3a57600080fd5b600c54604051600160a060020a038084169216907f8be0079c531659141344cd1fd0a4f28419497f9722a3daafe3b4186f6b6457e090600090a3600c805473ffffffffffffffffffffffffffffffffffffffff1916600160a060020a0392909216919091179055565b81600160a060020a0316611bb682610ebb565b600160a060020a031614611bc957600080fd5b600160a060020a038216600090815260036020526040902054611bf390600163ffffffff611c3916565b600160a060020a03909216600090815260036020908152604080832094909455918152600190915220805473ffffffffffffffffffffffffffffffffffffffff19169055565b600082821115611c4557fe5b50900390565b600081815260016020526040902054600160a060020a031615611c6d57600080fd5b6000818152600160208181526040808420805473ffffffffffffffffffffffffffffffffffffffff1916600160a060020a0388169081179091558452600390915290912054611cbb91611d9c565b600160a060020a0390921660009081526003602052604090209190915550565b600160a060020a0316600090815260209190915260409020805460ff19169055565b611d07828261141f565b611d11828261148e565b6040518190600090600160a060020a038516907fddf252ad1be2c89b69c2b068fc378daa952ba7f163c4a11628f55a4df523b3ef908390a45050565b611d578282611dd6565b600980546000838152600a60205260408120829055600182018355919091527f6e1540171b6c0c960b71a7020d9f60077f6af931a8bbf590da0223dacf75c7af015550565b81810182811015610edf57fe5b600160a060020a0316600090815260209190915260409020805460ff19166001179055565b6000903b1190565b600160a060020a0382161515611deb57600080fd5b611df58282611595565b6040518190600160a060020a038416906000907fddf252ad1be2c89b69c2b068fc378daa952ba7f163c4a11628f55a4df523b3ef908290a45050565b828054600181600116156101000203166002900490600052602060002090601f016020900481019282601f10611e725782800160ff19823516178555611e9f565b82800160010185558215611e9f579182015b82811115611e9f578235825591602001919060010190611e84565b50611eab929150611f81565b5090565b828054600181600116156101000203166002900490600052602060002090601f016020900481019282601f10611ef057805160ff1916838001178555611e9f565b82800160010185558215611e9f579182015b82811115611e9f578251825591602001919060010190611f02565b815481835581811115610af657600083815260209020610af6918101908301611f81565b50805460018160011615610100020316600290046000825580601f10611f675750610cf3565b601f016020900490600052602060002090810190610cf391905b61097c91905b80821115611eab5760008155600101611f87560077686974656c6973740000000000000000000000000000000000000000000000a165627a7a7230582085a09359f4216e0271d1470e826d8974039d998767e918787e332dc3febd29a30029",
  "source": "pragma solidity ^0.4.24;\n\nimport \"openzeppelin-solidity/contracts/math/SafeMath.sol\";\nimport \"openzeppelin-solidity/contracts/access/Whitelist.sol\";\nimport \"openzeppelin-solidity/contracts/token/ERC721/ERC721Token.sol\";\n\n\n/**\n* @title CryptoKaijus\n*/\ncontract CryptoKaijus is ERC721Token, Whitelist {\n  using SafeMath for uint256;\n\n  string public tokenBaseURI = \"https://ipfs.infura.io/ipfs/\";\n\n  // The NFC tag ID\n  mapping(bytes32 => uint256) internal nfcIdToTokenId;\n  mapping(uint256 => bytes32) internal tokenIdToNfcId;\n\n  // Block when the Kaijus was born - will help with ordering by birth date which could differ from token ID\n  mapping(uint256 => uint256) internal tokenIdToBirthDate;\n\n  // A pointer to the next token to be minted, zero indexed\n  uint256 public tokenIdPointer = 1;\n\n  constructor () public ERC721Token(\"CryptoKaijus\", \"KAIJUS\") {\n    addAddressToWhitelist(msg.sender);\n  }\n\n  function mint(bytes32 nfcId, string tokenURI, uint256 birthDate)\n  public\n  onlyIfWhitelisted(msg.sender)\n  returns (bool) {\n    _mint(msg.sender, nfcId, tokenURI, birthDate);\n    return true;\n  }\n\n  function mintTo(address to, bytes32 nfcId, string tokenURI, uint256 birthDate)\n  public\n  onlyIfWhitelisted(msg.sender)\n  returns (bool) {\n    _mint(to, nfcId, tokenURI, birthDate);\n    return true;\n  }\n\n  function _mint(address to, bytes32 nfcId, string tokenURI, uint256 birthDate) internal {\n    require(nfcIdToTokenId[nfcId] == 0, \"Unable to mint Kaijus with duplicate NFC ID\");\n\n    uint256 tokenId = tokenIdPointer;\n\n    tokenIdToBirthDate[tokenId] = birthDate;\n    tokenIdToNfcId[tokenId] = nfcId;\n    nfcIdToTokenId[nfcId] = tokenId;\n\n    _mint(to, tokenId);\n    _setTokenURI(tokenId, tokenURI);\n\n    tokenIdPointer = tokenIdPointer.add(1);\n  }\n\n  function burn(uint256 tokenId)\n  public {\n    require(isApprovedForAll(ownerOf(tokenId), msg.sender));\n    _burn(ownerOf(tokenId), tokenId);\n  }\n\n  function setTokenURI(uint256 tokenId, string uri)\n  public\n  onlyIfWhitelisted(msg.sender) {\n    _setTokenURI(tokenId, uri);\n  }\n\n  function setTokenBaseURI(string _newBaseURI)\n  external\n  onlyIfWhitelisted(msg.sender) {\n    require(bytes(_newBaseURI).length != 0, \"Base URI invalid\");\n    tokenBaseURI = _newBaseURI;\n  }\n\n}\n",
  "sourcePath": "/Users/jamesmorgan/Dropbox/workspace-blockrocket/crypto-kaijus/contracts/CryptoKaijus.sol",
  "compiler": {
    "name": "solc",
    "version": "0.4.24+commit.e67f0147.Emscripten.clang"
  },
  "schemaVersion": "3.0.0-beta.0",
  "updatedAt": "2018-09-12T13:14:08.509Z"
}